:020000040800F2
:1000000088120020350100089F400008D130000808
:100010009D4000084D090008654C000800000000E4
:10002000000000000000000000000000E54500089E
:10003000CF09000800000000A1400008E7450008C3
:100040004F0100084F0100084F010008F54100086A
:100050004F0100084F0100084F0100084F01000840
:100060004F0100084F0100084F0100085109000826
:100070005D09000869090008750900088109000880
:100080008D09000899090008110800080000000007
:100090000000000000000000000000004F01000808
:1000A0004F0100084F0100084F0100084F010008F0
:1000B0004F0100084F0100084F010008E13000081F
:1000C000D53000084F0100084F0100084F0100081B
:1000D0004F010008C54A00084F010008794B00088D
:1000E0004F010008A54000084F0100080000000073
:1000F0000000000000000000000000000000000000
:1001000000000000000000000000000000000000EF
:1001100000000000000000004F0100084F0100082F
:10012000DFF80CD000F040FB0048004759560008AB
:10013000881200200648804706480047FEE7FEE791
:10014000FEE7FEE7FEE7FEE7FEE7FEE7FEE7FEE787
:100150004D46000821010008202A04DB203A21FA3C
:1001600002F00021704721FA02F3D040C2F12002D0
:10017000914008431946704740EA01039B0703D0AA
:1001800009E008C9121F08C0042AFAD203E011F8D6
:10019000013B00F8013B521EF9D27047D2B201E098
:1001A00000F8012B491EFBD270470022F6E710B57C
:1001B00013460A4604461946FFF7F0FF204610BDD5
:1001C00010B5002200E0521C835C8C5CA34201D17C
:1001D000002BF8D1D8B2E1B2401A10BD2DE9FE4F84
:1001E00081EA030404F0004421F0004100944FF040
:1001F000000B23F0004350EA01045ED052EA0304EE
:100200005BD0C3F30A54C1F30A552C44A4F2F3346F
:100210000194A0FB0254C1F3130141F48011C3F314
:10022000130343F4801301FB024400FB034E840AD2
:10023000970A44EA815447EA8357A4FB076802956A
:100240008D0A05FB07854FEA932C04FB0C54270508
:10025000029D4FEA065847EA1637B5EB08056EEBE4
:10026000070C870E920E47EA811742EA8312A7FB1A
:100270000201B6EB0B0164EB00042B0D43EA0C33D7
:100280005E1844EB1C50DA465146E7FB0201C5F309
:1002900013044FEA0B3343EA14534FEA0432019C30
:1002A00043EA0603A4F10C040294009CCDE900B4D7
:1002B00000F0E6F803B0BDE8F08F00200146F9E752
:1002C00070B521F0004303430CD0C1F30A5500245C
:1002D000D5EB040564EB0403D617AD1AB34102DB7A
:1002E0000020014670BD201841EB025170BD0EB5D3
:1002F00040F2334102910021CDE900110A460B463C
:1003000000F0BEF803B000BD00F0004230F0004045
:100310000AD0C10D01F56071C0F3160042EA015127
:10032000C20840071143704700200146704701F0A2
:10033000004330B421F0004150EA010206D00A0D1A
:10034000A2F56072C1F31301002A02DC30BC002068
:100350007047440F44EAC104C100E01830BC00EB10
:10036000C25000F047B830B50B46014600202022AD
:10037000012409E021FA02F59D4205D303FA02F5B2
:10038000491B04FA02F52844151EA2F10102F1DC12
:1003900030BD2DE9F05F0546002092469B46884619
:1003A0000646814640241BE02846414647462246F1
:1003B000FFF7D2FE53465A46C01A914110D3114658
:1003C0001846224600F002FA2D1A67EB01084F4644
:1003D00022460120002100F0F9F917EB00094E41F7
:1003E000201EA4F10104DFDC484631462A4643467C
:1003F000BDE8F09F0029A8BF7047401C490008BF16
:1004000020F00100704710B4B0FA80FC00FA0CF044
:1004100050EA010404BF10BC704749B1CCF120047C
:1004200021FA04F411FA0CF118BF01212143084309
:10043000A3EB0C01CB1D4FEA00614FEA102042BF35
:10044000002010BC704700EBC35010440029A4BF2B
:1004500010BC7047401C490008BF20F0010010BCD0
:10046000704710B5141E73F1000408DA401C41F106
:10047000000192185B411A4301D120F0010010BD28
:100480002DE9F04D92469B4611B1B1FA81F202E09E
:10049000B0FA80F22032904600F098F904460F46F8
:1004A00040EA0A0041EA0B0153465A46084313D07A
:1004B000114653EA010019D0C8F140025046FFF737
:1004C0004BFE05460E4650465946424600F07EF920
:1004D000084305D0012004E020463946BDE8F08DF0
:1004E0000020054346EAE0762C4337430A9863052B
:1004F000E40AA0EB08000022FD0A44EA47540A304F
:1005000002D500200146E9E7010510196941DDE93E
:10051000084500196941BDE8F04DA2E72DE9FE4FFD
:10052000804681EA0300C00F0C46009021F0004194
:1005300023F00045B8EB0200A94105D24046214610
:1005400090461C460B46024623F00040104347D01D
:10055000270DC7F30A00C3F30A510290401A019015
:1005600040286BDAC3F3130040F4801B00989246D6
:1005700020B10023D2EB030A63EB0B0B0198594621
:10058000C0F14002504600F021F906460D465046A3
:100590005946019A00F029F910EB08006141002446
:1005A00087EA115284EAE7731A4340D0009A62B393
:1005B000019A012A4FEA075215DC001B61EB020188
:1005C0004FF0004202EA0752CDE90042001C41F51B
:1005D000801132462B46FFF753FF03B0BDE8F08F82
:1005E00040462146F9E7001B61EB0201001C41F582
:1005F000801300185B412018A2F5001747EB030198
:1006000040EAD570B6196D4111E06D084FEA360623
:1006100045EAC0754FEA0752001B61EB0201001C5E
:1006200041F5801149084FEA300000195141324626
:100630002B4603B0BDE8F04FFFF713BF009801222F
:1006400040000023D0EB020263EBE07300982146E8
:100650004FEAE074B8EB000061EB0401E9E783F0D6
:1006600000435BE781F0004158E72DE9F04D81EA56
:10067000030404F0004B21F0004514464FF0000A3B
:1006800023F0004150EA050220D054EA01021DD0B7
:10069000C5F30A570246C5F31303C1F31300C1F3B0
:1006A0000A5640F4801543F48013A7EB0608101B8C
:1006B000D64608F2FD3873EB050002D308F10108B5
:1006C00001E092185B41B8F1000F03DA0020014607
:1006D000BDE8F08D00204FF48011064684460EE000
:1006E000171B73EB050705D3121B63EB05030643CA
:1006F0004CEA010C49084FEA300092185B4150EA7D
:100700000107EDD152EA030012D082EA040083EA25
:100710000501084305D0101BAB4106D2012200237E
:1007200006E000224FF0004302E06FF00102531098
:100730001AEB06004CEB085110EB0A0041EB0B01E1
:10074000BDE8F04DFFF78DBEC1F30A52C1F31301AE
:1007500040F2FF3341F480119A4202DA0020014650
:10076000704740F233439A42A2F2334202DC5242D3
:10077000FFF7F2BC00F02AB830B5041E71F1000496
:1007800004DB4FF00044404264EB0101141E73F19E
:10079000000405DB1C464FF00043524263EB0403A8
:1007A000994208BF904230BD064C074D06E0E06814
:1007B00040F0010394E8070098471034AC42F6D3A8
:1007C000FFF7B2FC185D0008385D0008202A04DB42
:1007D000203A00FA02F1002070479140C2F1200354
:1007E00020FA03F3194390407047202A06DBCB1709
:1007F000203A41FA02F043EAE07306E041FA02F3DC
:10080000D040C2F1200291400843194670470000D1
:10081000014800F0FAB900005405002070B5044604
:1008200000688168C943C9071CD1816821F00101B2
:10083000816000F045FE05460FE000BF00F040FE7D
:10084000401B022809D9A06A40F01000A062E06AAB
:1008500040F00100E062012070BD20688068C04364
:10086000C007EBD0002070BD10B50146406A826A17
:1008700012F0500F05D0006A026BBDE81040084628
:100880001047816A41F40071816201688968C1F38F
:10089000424107290CD1017B51B9816A21F4807151
:1008A0008162816AC90403D4816A41F001018162D5
:1008B00000F0A8F910BD10B5406A816A41F040010E
:1008C0008162C16A41F00401C16200F09DF910BD6E
:1008D00010B5406A00F097F910BD0000F8B5002689
:1008E0000446009600688168C943C90728D081681A
:1008F00041F001018160134813490068B0FBF1F039
:1009000000E0401E00900028FBD100F0D9FD054614
:1009100011E000BF00F0D4FD401B02280BD9A06AF3
:1009200040F01000A062E06A40F00100E06284F84C
:1009300024600120F8BD20688068C043C007E9D169
:100940000020F8BD3000002040420F00FEE700000C
:10095000014800F0AFBB000084050020014800F012
:10096000A9BB000044080020014800F0A3BB000020
:1009700000080020014800F09DBB0000780700201F
:10098000014800F097BB0000BC070020014800F0C0
:1009900091BB000060060020014800F08BBB000006
:1009A0001C06002030B590F840500124AC40C56BC7
:1009B0006C60046863604368102B036803D099601F
:1009C0000068C26030BD9A600068C16030BD704789
:1009D00010B5002002F009F8084809490068B0FB8A
:1009E000F1F0C1B2074801EB41020170C2EBC11145
:1009F0004FF6FF7202EAC101418010BD30000020B5
:100A000000127A00340000204FF0E02100220A6139
:100A1000084B5B88584348618A61086940F00100CF
:100A200008610869C30701D0C003FAD50A618A6169
:100A3000704700003400002070470000F8B5002522
:100A40000446009590F82400012808D0012084F87D
:100A500024002046FFF7E2FE060002D04BE0022011
:100A6000F8BDA06A20F4885040F00200A062022085
:100A700001F0C2F922490968B1FBF0F0400000E042
:100A8000401E00900028FBD12046FFF727FF20687A
:100A9000816841F00801816000F012FD074604E022
:100AA00000F00EFDC01B0A2811D8206880680007DE
:100AB000F6D42068816841F00401816000F000FDF7
:100AC00007460EE000F0FCFCC01B0A2809D9A06A0A
:100AD00020F0020040F01000A06284F824500120B1
:100AE000F8BD206880684007ECD4A06A20F00200BE
:100AF00040F00100A06284F824503046F8BD0000A8
:100B00003000002070470000F8B50024009490F8F1
:100B100024202546012A12D0012280F824204A6888
:100B20001F23072A0DD20668776B521E02EB820242
:100B300093409F430B6893401F43776319E0022063
:100B4000F8BD06680D2A0AD2376BD21F02EB82026B
:100B500093409F430B6893401F43376309E0F76A54
:100B60000D3A02EB820293409F430B6893401F4370
:100B7000F7620A68072306680A2A0AD3F7680A3A5E
:100B800002EB420293409F438B6893401F43F76000
:100B900008E0376902EB420293409F438B68934021
:100BA0001F4337610A68102A01D0112A20D1124B45
:100BB00002689A4217D193681B0219D4936843F4D0
:100BC000000393600968102912D10C490C4A096886
:100BD000B1FBF2F101EB8101490000E0491E0091F7
:100BE0000029FBD104E0816A41F0200181620124E7
:100BF00080F824502046F8BD002401403000002039
:100C000040420F0070477047704710B504460068B7
:100C10004168890626D50168890723D5A16AC906D6
:100C200003D4A16A41F40071A1628168C1F3424119
:100C3000072910D1217B71B9416821F02001416061
:100C4000A06A20F48070A062A06AC00403D4A06AE5
:100C500040F00100A0622046FFF7D4FF21686FF04A
:100C6000120008602068416809062ED5016849070E
:100C70002BD5A16AC90603D4A16A41F40051A1622F
:100C80008168C1F30231072909D04168490515D4AB
:100C90008168C1F34241072910D1217B71B94168B4
:100CA00021F080014160A06A20F48050A062A06A17
:100CB000C00503D4A06A40F00100A0622046FFF7FF
:100CC00021FF21686FF00C00086020684168490628
:100CD0000DD50068C0070AD0A06A40F48030A06239
:100CE000204600F093F821686FF00100086010BD05
:100CF0002DE9F0414FF0000704003D467ED0A06A88
:100D0000002628B9E66284F82460204600F080F8C6
:100D10002046FFF783FDA16AC90600D420B1A06A6E
:100D200040F01000A06269E0A16A21F4885141F00E
:100D30000201A1626268E169237B0A4347EA430139
:100D40000A43A1684FF48077B94209D0012907D03E
:100D50005FF0000194F814C0BCF1010F02D00AE06A
:100D60003946F7E7F3B1A36A43F02003A362E36ACD
:100D700043F00103E3622368D3F804C02CF4694C08
:100D80004CEA010CC3F804C021688B68DFF870C01E
:100D900003EA0C0313438B60A168B9420BD001290D
:100DA00009D00CE0DFF85CC0A3690CEB43330B43C4
:100DB00043F40061DFE7218A0D05A5F58015216860
:100DC000CB6A23F470032B43CB62216889680E4BF6
:100DD0001940914208D1E662A16A21F0020141F076
:100DE0000101A162BDE8F081A06A20F0020040F09C
:100DF0001000A062E06A40F00100E0620120F1E72B
:100E0000FDF7E1FF00E0FFFFFE0E1FFF704700004F
:100E100070B586B0002506460095019502950395AC
:100E200000681E49884236D11D49886940F4007027
:100E30008861886900F400700490886940F00400BB
:100E400088618869694600F00400049001200090E0
:100E500003200190134800F03DFA144C1248C4E9F5
:100E600000058020C4E9025080002061800060619C
:100E70002020C4E90605204600F0C6F908B1FFF7B6
:100E8000DBFD3462002211461220666200F07CFF16
:100E9000122000F06BFF06B070BD0000002401407E
:100EA00000100240000801400800024084050020B4
:100EB0002DE9F041044690F8240016460F4601281B
:100EC0000ED0012084F824002046FFF707FD05001E
:100ED0004FF0000006D084F824002846BDE8F081D9
:100EE0000220FBE7A16A40F60162914341F4807160
:100EF000A162A16A21F48011A162216849684905B3
:100F000005D5A16A21F4005141F48051A162A16A82
:100F1000C90404D5E16A21F00601E16200E0E06263
:100F200084F82400216A13488862216A1248C86242
:100F3000216A1248086321686FF002000860206887
:100F4000816841F480718160216833463A464C31B2
:100F5000206A00F087F920688168C1F342410729BF
:100F6000816803D041F480118160B6E741F4A001AB
:100F7000FAE7000069080008D1080008B70800086F
:100F800010B5040002D0607910B106E0012010BD58
:100F900000202071204600F005F80120607100203B
:100FA00010BD000008B500680649884208D106480F
:100FB000416941F040014161406900F0400000900A
:100FC00008BD0000003002400010024010B590F84B
:100FD00021100022022905D00421816380F82020FD
:100FE000012010BD01680B6823F00E030B6001683F
:100FF0000B6823F001030B6090F84030C46B0121B3
:1010000001FA03F3636080F8211080F82020104675
:1010100010BD000010B590F821100024022903D063
:101020000421816301243DE001680A6822F00E0278
:101030000A6001680A6822F001020A601A4A01681F
:10104000914201D1012121E0174A1432914201D18C
:1010500010211BE0144A2832914201D1891515E074
:10106000114A3C32914201D189140FE00E4A5032AC
:10107000914202D14FF4803108E00B4A6432914230
:1010800002D14FF4801101E04FF08071064A083A16
:101090005160012180F82110002180F82010416B5F
:1010A00001B18847204610BD0800024090F8210099
:1010B000704700002DE9F05FC16B0C6801680B6898
:1010C000D0F840C0042202FA0CF2494DDFF824A106
:1010D000494E4A4FDFF828B1DFF828E122422CD0F0
:1010E0005A072AD50A68920603D40A6822F0040235
:1010F0000A600168A94201D1042219E0514501D1D9
:10110000402215E0B14202D14FF4806210E0B942B2
:1011100002D14FF480420BE0594502D14FF48022B6
:1011200006E0714502D14FF4800201E04FF0806289
:101130002F4908394A60C16A3BE04FF0020808FABB
:101140000CF818EA040F4FF000094FF0010235D0F7
:101150005FEA837832D50B689B0605D40B6823F0D1
:101160000A030B6080F821200168A94201D1022204
:1011700019E0514501D1202215E0B14202D14FF4CE
:10118000007210E0B94202D14FF400520BE0594511
:1011900002D14FF4003206E0714502D14FF4001243
:1011A00001E04FF00072124908394A6080F820903F
:1011B000816A00291AD0BDE8F05F0847082505FAC2
:1011C0000CF5254212D01B0710D50B6823F00E0337
:1011D0000B6090F84010C36B02FA01F15960826312
:1011E00080F8212080F82090016BE2E7BDE8F09FB5
:1011F000080002401C00024030000240440002404F
:10120000580002406C00024030B528B308C81349AA
:1012100014221944B1FBF2F18900C16310498163C2
:10122000022141771A6843F6F0718A43D0E900142D
:101230002143D0E902452C432143046921434469F9
:101240002143846921431143196000214163012234
:1012500042770177084630BD012030BDF8FFFDBF61
:101260000000024070B5044690F8200000250128D7
:101270000CD0012084F8200094F821600020012E79
:1012800006D084F820000225284670BD022070BDDB
:10129000022684F82160A0632068066826F0010613
:1012A00006602046FFF77EFBE06A002820680168A0
:1012B00002D041F00E0106E021F004010160206837
:1012C000016841F00A0101602068016841F00101F4
:1012D0000160D9E72DE9F84FDFF8B891002409F152
:1012E000040A0AF1040B23460F270BF1040EC9E090
:1012F0000125A5402A40AA427DD1674ED1F804C0FD
:10130000ACEB0608B44532D014DCBCF1030F3AD084
:1013100009DCBCF1000F2AD0BCF1010F1CD0BCF1DC
:10132000020F31D11DE0BCF1110F17D0BCF1120F2B
:101330002AD119E0B8F5881F19D006DCB8F5803F2E
:1013400015D0B8F5801F1FD111E0B8F5001F0ED0E1
:10135000B8F5041F18D10AE0CB6815E0CB681B1D57
:1013600012E0CB6808330FE0CB680C330CE08B68DD
:101370002BB1012B4FF0080303D0456104E0042397
:1013800002E0056100E00023FF2A01D8064601E0E3
:1013900000F104064FEA840501D9A5F12005D6F82D
:1013A000008007FA05FC28EA0C0803FA05F548EA6C
:1013B0000508C6F800804D68ED0062D5374DAE696E
:1013C00046F00106AE61AD6924F0030605F00105A3
:1013D0000095334D06EB050CDCF80850A607360FD8
:1013E00007FA06F825EA0805DFF8B880404503D17A
:1013F0004FF0000817E044E0DFF8AC80404502D130
:101400004FF001080FE0DFF8A480404502D14FF013
:10141000020808E0DFF89880404502D14FF0030849
:1014200001E04FF0040808FA06F848EA0508CCF88D
:1014300008804D68D9F80060ED034D4601D516438C
:1014400000E096432E604D68DAF80060AD03554623
:1014500001D5164300E096432E604D68DBF800602E
:10146000ED025D4601D5164300E096432E604D68BF
:10147000DEF80060AD02754601D5164300E09643E4
:101480002E60641C0D682A46E5407FF431AFBDE84C
:10149000F88F00000004014000001110001002400D
:1014A0000000014000080140000C01400010014014
:1014B000001401400AB1016170470904FBE7000014
:1014C0000148806870470000240000207047704782
:1014D0002DE9F04104460068416946680025CF4384
:1014E000F9050BD4F143C90508D46FF480710125C7
:1014F00041612068016841F400410160B80508D4E9
:10150000F043C00505D421686FF4007045F0020572
:101510004861780527D4F043C00524D494F83E30C0
:10152000628D94F83D00216B202B08D13AB9212817
:1015300010D029280ED0282801D121290AD02168CD
:101540006FF48060486194F83E0045F0040510286F
:1015500004D008E0204602F055FA04E02068016853
:1015600041F400710160380508D4F043C00505D48A
:1015700021686FF4006045F008054861002D07D030
:10158000206C284320642046BDE8F04101F08ABE6B
:10159000BDE8F0812DE9F041026800245168C56A78
:1015A00090F83E3090F83D60102B1CD0402B1AD0A4
:1015B000036C002B7ED053694FF02805DB439F0757
:1015C00079D4CF43BF0576D4016C01B1946990F80A
:1015D0003D3000219D430B467FD0C91E516180F8EC
:1015E0003C30BDE8F081946953694FF42A07DB432E
:1015F0005FEAC37C4FF02A4604D0BD42F1D0B54229
:10160000EFD010E0CD43AD050DD4C16AB94201D190
:10161000012103E0C16AB14201D10821C162BDE8E4
:10162000F04102F05DB91D0716D4CD43AD0513D4CA
:10163000416CC9B21161416B11B9826B002AD0D0E3
:10164000896A19B9816B896A0029CAD00068416822
:1016500041F400614160C4E79D0706D4CD43AD0568
:1016600003D4BDE8F04102F08FB8E4435268640748
:101670004FEA025215D4002AB3DB1A0608D4CA4333
:10168000520505D45A0705D5BDE8F04101F0FABF6F
:101690005A07A6D4C9438905A3D4BDE8F04101F097
:1016A000AFBF002A9DDB5A060CD4CA43520509D4A9
:1016B0005A0702E00FE023E00FE005D5BDE8F04156
:1016C00001F010BF5A078CD4C943890589D4BDE8FD
:1016D000F04101F09EBE94696DE7556825F4806580
:1016E0005560E243540700D50121120601D58289D5
:1016F00000E0028B80F83C3092B2FFF7E8FE70E722
:10170000DC0606D4CC43A40503D4BDE8F04102F0C6
:10171000BBB9212E27D0292E25D05C0655D4CC4329
:10172000640552D45B0752D590F83D10438D002BD1
:1017300091D01269436A1A70426A521C4262428D09
:10174000521E4285428D002A85D12A29D7D10168AF
:101750004A6822F480624A602221016380F83D5089
:1017600000F0B0FA3DE71C0623D4CC43640520D436
:101770005B0720D590F83D10438D002BBFD0436A06
:101780001B781361426A521C4262428D521E42858E
:10179000428D002AB3D12929B1D101684A6822F4C7
:1017A00080624A602121016380F83D5000F08BFA8D
:1017B00017E75B07A3D4C9438905A0D4418D00294D
:1017C0009DD0416A097811610AE05B0797D4C9434B
:1017D000890594D4418D002991D01169426A117014
:1017E000416A491C4162418D491E4185F9E67047B5
:1017F00070B504001BD094F83D00002520B984F892
:101800003C50204600F0F2F9242084F83D00206886
:10181000016821F00101016000F0FEFB4D4A6168A2
:10182000914201D84C4900E04C49884201D2012044
:1018300070BD4B492368B0FBF1F15E6826F03F06AE
:101840000E435E606368934206D94FF49673594322
:101850004FF47A73B1FBF3F12368491C1E6A26F03A
:101860003F06314319626168914210D84900401E19
:10187000B0FBF1F2521CC2F30B02042A01D2042085
:1018800022E0B0FBF1F0401CC0F30B001CE0A368A9
:10189000F3B301EBC10202EB0116421EB2FBF6F2FA
:1018A000521C42F48042120549D093B301EBC102AD
:1018B00002EB0111401EB0FBF1F0401CC0F30B0025
:1018C00040F4804040F400402168CA694CF6FF7340
:1018D0009A431043C861D4E90701084321680A68A4
:1018E00022F0C00210430860D4E9030101432068DC
:1018F000826848F2FF339A4311438160D4E90501BD
:1019000008432168CA6822F0FF021043C86001E062
:101910000EE016E02068016841F0010101602564D5
:10192000202084F83D00256384F83E50002070BDDF
:1019300001EB4106421EB2FBF6F2521CB3E7012056
:10194000C2E701EB4101401EB0FBF1F0401CC0F3C7
:101950000B00B7E7A086010080841E0000093D004F
:1019600040420F0070477047704700002DE9F84F64
:101970001F4690468A460446DDF82890FFF7A0FDF2
:10198000054694F83D0020287FD1192301224049C3
:101990002046009502F04CF9002876D194F83C00DE
:1019A000012872D0012084F83C0020680168C90732
:1019B00003D1016841F0010101602068016821F450
:1019C00000610160212084F83D00102084F83E0071
:1019D00000262664C4F824806785608D20852D4804
:1019E000E0622B464A465146204601F0C5FD90B9BB
:1019F000206841698069009036E02A4649462046C1
:101A000002F095F950B1206C042804D120680168D7
:101A100041F4007101600120BDE8F88F606A21681F
:101A200000780861606A401C6062618D491E6185B2
:101A3000218D491E89B2218522685369DB435B07EA
:101A40000BD451B100781061606A401C6062608DF7
:101A5000401E6085208D401E20852A46494620462E
:101A600002F0C0F80028CED1208D0028C5D154F84E
:101A70003D0B016841F400710160202004F81E094B
:101A8000E67766770020C7E7FFE70220C4E700009B
:101A9000020010000000FFFF704770472DE9FF4F64
:101AA00083B00025DDE910899A46934604460095E7
:101AB000FFF706FD074694F83D00202870D14748FF
:101AC0002026016846F2A810B1FBF0F101EBC1003D
:101AD00000EB011000900098401E009010D020688C
:101AE0008069C0438007F6D594F83C00012873D084
:101AF000012084F83C0020680168C9070AD00DE085
:101B000044F8305F6673A573206940F020002061BF
:101B1000257341E0016841F001010160206801681E
:101B200021F400610160212084F83D00402084F808
:101B30003E002564C4F82480A4F82A90608D208596
:101B40002748E062208D60B3616B26488862616B34
:101B500025480863606BC562606B45632268238D0E
:101B60001032616A606BFFF77DFB58B184F83D600D
:101B700084F83E5054F8400F40F0100044F8040937
:101B8000257009E02320CDE9000753465A46204638
:101B9000049901F0EDFE28B1012007B0BDE8F08FF7
:101BA0001AE010E0206841698169009184F83C5096
:101BB000416841F4807141602068416841F40061EE
:101BC00041600020E9E784F83D6084F83E5054F815
:101BD000400F40F04000D1E70220DEE73000002057
:101BE0000000FFFF9D3100086B310008F0B585B0A3
:101BF00000240646009401940294039400682C4942
:101C0000884252D12B4DA86940F00800A861A8690C
:101C1000694600F008000490C02000901220019056
:101C2000032003902448FFF755FBE86940F40010B7
:101C3000E861E869224D00F4001004901F48C5E9EE
:101C400000048027C5E902472C616C61AC6128461D
:101C5000EC61FFF7D9FA08B1FEF7EEFEB5636E62EC
:101C6000174D16484435143801C5102091C5144845
:101C700045F8104944306C61AC61EC61FFF7C4FA7F
:101C800008B1FEF7D9FE7563002211461F206E626F
:101C900000F07AF81F2000F069F800221146202099
:101CA00000F072F8202000F061F805B0F0BD0000EF
:101CB0000054004000100240000C0140800002402F
:101CC0001C06002070477047024881680278114462
:101CD000816070472400002010B5032000F074F8E4
:101CE000002000F005F800F023F8002010BD0000EF
:101CF00070B50D4D04464FF47A712878B1FBF0F0C1
:101D00000A490968B1FBF0F000F07BFE48B9102CDD
:101D100007D200222146501E00F036F800206C60E9
:101D200070BD012070BD00002400002030000020A4
:101D30000C4808B5816941F001018161816901F0B8
:101D400001010091C16941F08051C161C06900F099
:101D5000805000900448416821F0E06141F000713A
:101D6000416008BD0010024000000140002809DB6E
:101D700000F01F02012191404009800000F1E020A5
:101D8000C0F8001170470000F0B40E4B1B680C4601
:101D9000C3F30223C3F10705042D00D90425191D3F
:101DA000072901D2002300E0DB1E012606FA05F117
:101DB000491E214099409E40761E16403143F0BC9A
:101DC00002F08CBF0CED00E0064900F00702086845
:101DD0004FF6FF03184040EA0220034A1043086010
:101DE000704700000CED00E00000FA0501490120F9
:101DF0000862704700000E4210B501460020144CE6
:101E000001290BD0022908D100F016F96168C1F34D
:101E10008131491C4900B0FBF1F010BD226AC2F3C8
:101E20000121012903D1920701D5C80310BD022960
:101E300005D1626A920702D549F6404010BD0329D8
:101E4000FCD121688903F9D54FF2244010BD000070
:101E5000001002402DE9F84305460078314CC007D8
:101E600054D0E0690026C00008D4E06940F08050FA
:101E7000E061E069012600F0805000902A48016886
:101E8000C90512D40168804641F480710160FFF7F2
:101E900017FB074605E000BFFFF712FBC01B6428D5
:101EA00023D8D8F80000C005F6D5206A10F4407099
:101EB00021D0A98801F4407181421CD0206A1B49BD
:101EC000012220F440700A6000220A602062C007EC
:101ED00011D0FFF7F5FA074641F2883808E000BF55
:101EE000FFF7EEFAC11B414502D90320BDE8F88394
:101EF000206A8007F4D5206A696820F4407008439E
:101F000020621EB1E06920F08050E06128788007EF
:101F100005D56068A96820F440400843606000204F
:101F2000E4E700000010024000700040400442421C
:101F30002DE9F041050027D02868334C810712D5E0
:101F4000400703D5606840F4E060606028780007CF
:101F500003D5606840F4605060606068A96820F054
:101F6000F000084360602878C00729D0686801281D
:101F700004D02168022804D0890703E0216889037E
:101F800000E08901002902DB0120BDE8F0816168E1
:101F900021F0030101436160FFF792FA064641F226
:101FA000883706E0FFF78CFA801BB84201D903207E
:101FB000EBE76068696800F00C00B0EB810FF1D1CD
:101FC0002878400705D56068E96820F4E060084398
:101FD00060602878000706D56068296920F46050A1
:101FE00040EAC100606000F037F86168074AC1F359
:101FF0000311515CC8400649086006480068FFF7B5
:1020000077FE0020C1E700000010024008590008D8
:102010003000002028000020044805490068496875
:10202000044AC1F30221515CC840704730000020CF
:102030000010024018590008044805490068496822
:10204000044AC1F3C221515CC840704730000020EF
:10205000001002401859000813A188B00FC98DE87C
:102060000F0015A10DF1100C0FC98CE80F00164AD6
:102070005168164801F00C03042B10D0082B0ED128
:10208000C1F38343C9031DF803000AD5D16A04AA2A
:1020900001F00F01515C0D4A5043B0FBF1F008B064
:1020A00070470B494843FAE702030405060708098D
:1020B0000A0B0C0D0E0F1010010203040506070891
:1020C000090A0B0C0D0E0F100010024000127A00CE
:1020D00000093D002DE9F84F040070D02078C04D74
:1020E000C00749D06868C0F38100012807D068683C
:1020F000C0F38100022809D16868C00306D52868AA
:10210000800339D560680028E7D035E06068B0F515
:10211000803F0BD010B1B0F5A02F11D0286820F46B
:1021200080302860286820F4802002E0286840F48D
:1021300080302860606890B1FFF7C2F906460AE077
:10214000286840F480202860F0E700BFFFF7B8F966
:10215000801B642873D828688003F7D50CE0FFF74C
:10216000AFF9064605E000BFFFF7AAF9801B642817
:10217000F0D828688003F7D420789A4E80074FF073
:1021800001094FF0000839D5686810F00C0F07D02E
:102190006868C0F38100022809D16868C00306D4CA
:1021A0002868800714D52069012808D110E020692B
:1021B000B0B1C6F80090FFF783F9074605E00AE1E1
:1021C000FFF77EF9C01B0228C4D828688007F7D51E
:1021D0002868616920F0F80040EAC10028600DE03D
:1021E000C6F80080FFF76CF9074604E0FFF768F9CE
:1021F000C01B022823D828688007F7D4207800075E
:102200002CD57948A169D9B1C0F80090FFF758F9E9
:10221000074604E0FFF754F9C01B02280FD8686A8C
:102220008007F7D571484FF4FA510068B0FBF1F020
:10223000009000BF0098411E0091FAD20EE080E0AD
:10224000C0F80080FFF73CF9074604E0FFF738F9D3
:10225000C01B022875D8686A8007F7D42078400729
:1022600060D5E8690027C00008D4E86940F08050D4
:10227000E861E869012700F0805000905C4801683F
:10228000C90513D40168834641F480710160FFF7EA
:1022900017F9824606E000BFFFF712F9A0EB0A002B
:1022A00064284ED8DBF80000C005F5D5E0680128A9
:1022B0000AD008B1052813D0286A20F0010028624E
:1022C000286A20F0040002E0286A40F00100286239
:1022D000E06841F2883B98B1FFF7F2F882460BE0E4
:1022E000286A40F004002862EEE700BFFFF7E8F834
:1022F000A0EB0A0159455AD8286A8007F6D50CE0A8
:10230000FFF7DEF8824605E0FFF7DAF8A0EB0A01F6
:1023100059454CD8286A8007F6D41FB1E86920F0E7
:102320008050E861E06988B36968C1F381010229DE
:1023300044D00228C6F8608004D0FFF7C1F80446F4
:1023400038E034E0FFF7BCF8074604E0FFF7B8F8E0
:10235000C01B02282BD828688001F7D4206AB0F56A
:10236000803F05D1E86AA16820F00F000843E862C9
:10237000D4E908010843696821F4741108436860CE
:10238000C6F86090FFF79CF8044606E025E000BF21
:10239000FFF796F8001B022809D828688001F7D5B6
:1023A0001BE000BFFFF78CF8001B022802D90320B6
:1023B000BDE8F88F28688001F4D40EE00128F7D03A
:1023C0006868226A00F48031914204D1616A00F4A5
:1023D0007010884201D00120EAE70020E8E7000001
:1023E00000100240000042428004424230000020BF
:1023F00000700040024850F8210080B27047000091
:10240000006C0040024800EB810091B2016070470F
:10241000006C004008B50022224900F0B5F82148C0
:1024200081780091437802781FA1093002F02CFCDA
:102430000021084601F09CFF1A48002301221E4992
:10244000093002F08FF817490122491D1B48FEF799
:102450002FFD1448C01E8068FDF749FF4FF066321B
:10246000174BFDF7BBFE6FF00B02FDF729FFFDF7E1
:102470005EFFFDF749FF02460A480B4611A1C01E48
:1024800002F002FC0021362001F072FF0548002313
:1024900001220949C01E02F065F8BDE8084002F0BB
:1024A00089B8000007000020253032643A25303218
:1024B000643A2530326400004000002054050020BA
:1024C00066660A40252E316643000000704710B54D
:1024D000044600680168C90716D04168C90713D0CF
:1024E00040684007204607D5FFF7F0FF21686FF0EE
:1024F00004004860042002E0FFF78CFF01206074B4
:1025000021686FF00100486010BD80B1017C012995
:102510000FD001210174022242740268136843F053
:1025200001031360417400210174084670470120C3
:10253000704702207047000001A002F095BB000028
:10254000C4D6D6D3D6D0B6CFBBD8B5F721210D0A85
:102550000000000010B5044600680168890709D52D
:102560004068800706D52046FFF7E6FF21686FF038
:102570000200486003494FF4003008600120607495
:1025800010BD0000140401402DE9F04791460C46AF
:102590005FEA00084AD084B3D8F8000040684007DA
:1025A00044D4404601F033FE4FF461620546B0FB6F
:1025B000F2F1B0FBF2F302FB13503C23B0FBF3F05B
:1025C000B5FBF2F6607002FB1650B0FBF3F203FBB2
:1025D0001200A070182931D31820B1FBF0F7B1FB1D
:1025E000F0F200FB12102070404601F009FE411C81
:1025F00004D0A84202D9461B02E017E04FF0FF3694
:10260000A7EB071000EB4000C0EB001005EBC01576
:102610002946404601F04AFE40B9701C01D07119AC
:1026200000E03146404601F02DFE10B10120BDE82A
:10263000F0873946404601F04FFD00E02170B9F1C6
:10264000000F0BD0207801F03CFD2070607801F085
:1026500038FD6070A07801F034FDA0700020E6E73E
:1026600070B5040003D0607C002610B105E00120A5
:1026700070BD2674204600F043F8022060742046A6
:1026800000F096F9042578BB204601F07CFD58BB8C
:102690002068416821F007014160A06820B1174817
:1026A000016821F0010101601448001F0168A2685F
:1026B00021F46071114301606068411C04D1012064
:1026C000FFF79AFB80B1401E21688A6822F00F0252
:1026D00042EA10428A602168CA6860F30F02CA6049
:1026E000204601F06BFD08B16574C0E7E673012078
:1026F0006073A0736074002070BD0000306C0040F7
:1027000008B50068114988421FD1FFF76FFB1048D8
:10271000C16941F00061C161C0690E4900F000600B
:10272000009001200860014600220320FFF72CFBE7
:102730000320FFF71BFB002211462920FFF724FB93
:10274000BDE808402920FFF711BB08BD0028004064
:10275000001002403C0442422DE9F8434FF00006CD
:1027600017460D46040000960FD075B1207C012855
:102770000ED04FF0010984F81090022060740022FE
:1027800069462046FFF700FF20B10120BDE8F8832D
:102790000220FBE79DF800004FF4616148439DF87B
:1027A0000110C1EB011100EB81009DF8021000EB5C
:1027B00001082878E7B101F07BFC4FF4616100FB70
:1027C00001F7687801F074FCC0EB001007EB80079C
:1027D000A87801F06DFC3918414501D21648014432
:1027E000204601F04FFD70B1042060742674CCE7E0
:1027F0004FF4616148436978C1EB011100EB81003E
:10280000A9780144E8E721686FF002004860206879
:10281000016841F0020101600848016841F400319B
:10282000016006480830016841F40031016084F815
:10283000119026740020A9E7805101000004014096
:102840002DE9F0410D4604003BD0C5B3207C0128A2
:102850003AD04FF0010884F8108002206074E878C4
:1028600072B301F025FCE073687801F021FC60731D
:10287000A87801F01DFCA073C2B2617BE07B01F07F
:10288000D6FC20732870204601F0C1FC4FF4616132
:10289000B0FBF1F1002518292DD91822B1FBF2F176
:1028A000A1EB011101EB4101C1EB011100EBC116DC
:1028B0003146204601F0FAFC0427C8B90BE000E0DD
:1028C00004E00120BDE8F0810220FBE7E0736878B6
:1028D0006073A878CFE7204601F092FC411C0AD033
:1028E000B04208D206490144204601F0CBFC10B1A9
:1028F00067742574E5E784F8118025740020E1E70A
:10290000805101002DE9F0410D46040024D01DB393
:10291000207C012823D04FF0010884F81080022089
:1029200060742878EAB101F0C3FB4FF4616100FBE9
:1029300001F6687801F0BCFBC0EB001006EB8006E6
:10294000A87801F0B5FB35182946204601F0AEFC09
:102950000026042710BB0FE00120BDE8F081022013
:10296000FBE74FF4616148436978C1EB011100EB6B
:102970008100A9784518E7E72068416821F0050142
:102980004160204601F03CFC411C0AD0A84208D21C
:1029900006490144204601F075FC10B167742674A5
:1029A000DAE784F8118026740020D6E78051010010
:1029B00070B504000AD02068416821F00801416028
:1029C000FEF77EFD05464FF47A7608E0012070BDE3
:1029D000FEF776FD401BB04201D9032070BD206890
:1029E00040680007F4D5002070BD4FF0E0210428B6
:1029F000086903D020F004000861704740F004002B
:102A0000FAE710B5401EB0F1807F01D3012010BD60
:102A10004FF0E02460610F21601702F05FF90020A1
:102A2000A06107202061002010BD70B590F83C2007
:102A3000012A19D0012400F83C4F0222427050F8BC
:102A40003C3C5A689D6822F070060A684968324327
:102A500025F0800529435A6050F83C2C9160447061
:102A600000210170084670BD022070BD2DE9F041C3
:102A70000D46040003D094F83D0018B108E0012091
:102A8000BDE8F081002084F83C00204600F03AF8D0
:102A9000022084F83D002068816844F207029143D7
:102AA0008160211D206801F0F7FD2268906891691E
:102AB000166A2B68AF69034340F20330814341EA51
:102AC0000721A868EF6908434FF6FC418843E9688D
:102AD00040EA0720014328692F6A000140EA0730D5
:102AE000084369686D6926F0220646EA0515294300
:102AF00093602268906120680162012084F83D00A3
:102B00000020BDE710B586B0002400940194029423
:102B100003940068B0F1804F30D11948C16941F089
:102B20000101C161C16901F001010491816941F0B4
:102B300004018161816901F004010491816941F01E
:102B4000080181618069694600F0080004904FF433
:102B5000004000900B48FEF7BDFB0820CDE90004C3
:102B6000694609480294FEF7B5FB0849486820F415
:102B7000407040F0E06040F48070486006B010BDE6
:102B80000010024000080140000C0140000001401C
:102B900010B504460068416994F83920C1F3C011AA
:102BA000212A0BD151B1416921F080014161206B93
:102BB00008B1FEF70BFA204601F034FE20684169A7
:102BC00094F83A20C1F38011222A0BD151B1416906
:102BD00021F040014161606B08B1FEF7F7F9204632
:102BE00001F012FE002010BD7047000070B50268B1
:102BF00004461068D168536910F00F0F50D003F0ED
:102C0000010501F4907635435DD0C20705D0CA05B1
:102C100003D5E26B42F00102E263420705D5DA0711
:102C200003D0E26B42F00202E263820705D5DA07C5
:102C300003D0E26B42F00402E263020705D5DA0733
:102C400003D0E26B42F00802E263E26B002A33D069
:102C5000800604D5880602D5204601F0ECFD2068E8
:102C60004069E16BC0F38010090700D428B3204607
:102C700001F0CAFD2068416949061AD5416921F071
:102C800040014161606BA0B11B494163606BFEF77D
:102C9000C1F9002810D0606B416BBDE87040084757
:102CA000830610D58B060ED52046BDE8704001F096
:102CB000C2BD2046FFF798FF70BD2046FFF794FF86
:102CC0000020E06370BD030606D50B0604D5204640
:102CD000BDE8704001F092BE4006F3D54806F1D53C
:102CE000D168204621F04001D160202184F83910BC
:102CF00000F0ECF970BD00003147000870B5040029
:102D000004D094F83900002510B106E0012070BD10
:102D100084F83850204600F023F8242084F8390045
:102D20002068C16821F40051C160204601F0CEFD49
:102D30002068016921F4904101612068416921F016
:102D40002A0141612068C16841F40051C160E56316
:102D5000202084F8390084F83A00002070BD00007B
:102D60002DE9F04786B00025009501950295039561
:102D7000044603685948DFF860C1022103220715A1
:102D800080264FF010084FF0200963454DD183692C
:102D900043F480438361836903F48043049383692C
:102DA00043F0040383618069DFF834A100F004007C
:102DB00004900802CDE90001039269465046FEF7EF
:102DC00089FACDE90075694650460295FEF782FA08
:102DD000454F4448C7E902563D617D61BD61FD61D3
:102DE000C7E900083846FEF70FFA08B1FDF724FEE0
:102DF00027637C623C4F3B4844371430C7E90005E9
:102E0000C7E902563D61C7E905593846FD61FEF73D
:102E1000FBF908B1FDF710FE6763002201212520B0
:102E20007C62FEF7B1FF252051E0DFF8C0C06345AA
:102E30004FD1C36943F48023C361C36903F4802382
:102E40000493836943F0080383618069CDE90071CD
:102E500000F00800CDE90320254F69463846FEF70B
:102E600039FAF814CDE90005694638460295FEF7AF
:102E700031FA1D4F1B4888371438C7E90005C7E9E8
:102E800002563D61C7E905593846FD61FEF7BCF9B8
:102E900008B1FDF7D1FD67637C62134F1148CC3751
:102EA0002838C7E902563D617D61BD61FD61C7E912
:102EB00000083846FEF7A8F908B1FDF7BDFD276305
:102EC0000022012127207C62FEF75EFF2720FEF70B
:102ED0004DFF06B0BDE8F087003801400010024009
:102EE00000080140440002407807002000480040EC
:102EF000000C0140F8B5044690F83A0020283CD177
:102F0000C1B3BAB394F83800012836D0012084F850
:102F10003800A162A2850025E563222084F83A00EA
:102F2000636B17489862636B1648D862636B1648E8
:102F30001863606B134645630846666B216802465A
:102F40003046091DFEF78EF920680168416800913E
:102F500084F83850C16841F48071C16020684169CB
:102F600041F0010141612068416941F04001416146
:102F70000020F8BDFFE70120FBE70220F9E7000091
:102F80008B470008C7470008414700087047704753
:102F90002DE9F843044690F839001F4616460D46C1
:102FA000202850D1A5B19EB194F8380001284AD00C
:102FB000012084F838004FF00008C4F83C8021203C
:102FC00084F83900FEF77CFAA6848146E68426E080
:102FD0000120BDE8F883E08C401EE084A0684B46E9
:102FE000B0F5805F4FF000024FF08001204600975F
:102FF00003D001F034FDE8B90DE001F030FDC8B9AF
:1030000028882168C0F308004860206908B16D1C59
:1030100005E0AD1C03E0216815F8010B4860E08C69
:103020000028D8D14B46002240212046009701F0CD
:1030300016FD08B10320CCE7202084F8390084F87D
:1030400038800020C5E70220C3E7000070B50446C1
:1030500090F83900202830D169B362B394F8380071
:1030600001282AD0012084F838002162A284E28459
:103070000025E563212084F83900236B104898620D
:10308000236B1048D862236B0F481863206B1346DC
:1030900045632668206B321DFEF7E4F821686FF067
:1030A0004000086084F838502068416941F0800190
:1030B0004161002070BD012070BD022070BD000084
:1030C000D1470008FF470008414700087047704794
:1030D000FEE700000148FEF7FBB90000C80500202C
:1030E0000148FEF757BA0000C805002010B5406A35
:1030F00090F83D30426B00219162826B91620268D0
:10310000146824F4806414604185426B5163826BBF
:1031100051630268146824F00104146090F83D20A3
:103120002024602A0BD0282232EA03030FD080F833
:103130003D4080F83E1000BFFEF759FB10BD80F8FF
:103140003D4080F83E100164FEF7C0F910BD0368F1
:103150001C6844F001041C6003681C6844F480642B
:103160001C60016380F83D20E6E710B5406A00214D
:10317000426B9162826B91620268136823F48063F0
:1031800013604185202280F83D2080F83E10016CBC
:1031900041F010010164FEF72AFB10BD2DE9F0415A
:1031A000446A94F83D2094F83E60E16A20684368E0
:1031B00023F440734360636B00204FF02205986254
:1031C000A36B9862212333EA02070CD035EA020789
:1031D00001D1202E07D094F83E20002A21D0628D04
:1031E000012A20D024E021684E6826F400664E6053
:1031F00060852820292A02D02A2A07D00CE02363E0
:1032000084F83D002046FEF75EFD05E0256384F866
:103210003D002046FEF756FD2068416841F44071AC
:103220004160BDE8F0812268136823F48063136075
:103230002268536823F44073536011F5803F06D031
:10324000082904D0B1F12A4F01D0202904D12168E6
:103250000A6842F400720A6021684A6822F48052C7
:103260004A6021684A6822F400624A606085216CE5
:1032700019B12046FEF7BBFAD3E7202184F83D10B0
:1032800094F83E1084F83E00402905D012202063B7
:103290002046FEF768FBC4E720632046FEF7FCFBF0
:1032A000BFE7000070B5044690F83D0094F83E106A
:1032B000102906D1222804D121680A6822F400626C
:1032C0000A60282131EA00024FF000054FF0200685
:1032D00026D021684968090503D4602801D084F804
:1032E0003D60256384F83E5020684168090537D564
:1032F000416821F400614160606B384990F82120F9
:10330000012A11D04163606BFDF784FE38B3206859
:10331000016821F00101016084F83D60606B1CE0F0
:10332000256384F83D10DFE7A06B4163A06BFDF7D8
:1033300071FEA0B120684169C943490605D40069FE
:10334000616A0870606A401C60622068016821F050
:103350000101016084F83D60A06B416B884710E07B
:1033600094F83D10602923D04169C943490605D42A
:103370000069616A0870606A401C60622046FEF75E
:1033800036FA94F83D00216C490710D528280ED153
:103390002068416821F4E06141601148E0622563E2
:1033A00084F83D6084F83E502046FEF7DBFA70BD9D
:1033B00084F83D6025644169C943490605D4006924
:1033C000616A0870606A401C60622068016821F0D0
:1033D000010101602046FEF779F8D2E7ED300008E0
:1033E0000000FFFF01684A69D24352050FD46FF411
:1033F00080624A61002140F8301F202242738173AD
:10340000026942F00402026101730120704700204A
:10341000704710B5C26A438D0168042B06D0438DF6
:10342000032B08D0438D022B1DD012E04A6822F4F2
:1034300080624A600CE04B6823F480634B60042A8E
:1034400006D0022A04D001680A6822F480620A6069
:1034500001680969426A1170416A491C4162418DE3
:10346000491E418510BD012A30D0102A2ED0042AD1
:1034700030D0022A2ED00A6842F400720A60016835
:103480000969426A1170416A491C4162428D521EAB
:103490004285026812690A70416A491C4162418D85
:1034A000491E418501684A6822F440724A60202121
:1034B00080F83D1090F83E200021402A80F83E1010
:1034C0000CD012210163FEF74EFA10BD0A6822F4F7
:1034D0008062D3E70A6842F48062CFE70163FEF7B7
:1034E000DBFA10BD10B590F83D10222914D1418DA2
:1034F000032912D901680969426A1170416A491C9D
:103500004162418D491E4185418D032904D10068E6
:10351000416821F48061416010BDC26A022AFBD07B
:10352000012901D00029F7D101680A6822F48062DC
:103530000A6001684A6822F4E0624A600168096929
:10354000426A1170416A491C4162418D491E4185A0
:10355000202180F83D1090F83E200021402A80F87C
:103560003E1004D012210163FEF7FDF910BD016386
:10357000FEF792FA10BD0000F8B50446C06A1E4678
:103580000D461746082807D0012805D010F5803FC2
:1035900002D0206B122804D12068016841F48071A8
:1035A0000160134600224FF001112046009600F002
:1035B0003FFB08BB2069B0F5804F0ED00620216884
:1035C00000EAD51040F0F000086133463A460B4956
:1035D000204600F061FB78B902E005F0FE0000E053
:1035E000E8B221680861054933463A46891F2046FA
:1035F00000F052FB002800D00120F8BD08000100B7
:1036000010B5C26A90F83D1021290BD1418D51B1FE
:10361000416A026809781161416A491C4162418D21
:10362000491E418510BD20230021082A13D0202ADD
:1036300011D012F5803F0ED00268546824F4E06483
:1036400054601122026380F83E1080F83D3000BFC4
:10365000FEF78AF910BD0268546824F4E0645460EF
:103660000268146844F400741460016380F83D300B
:1036700090F83E2080F83E10402AE9D1FEF70DFA7E
:1036800010BD000010B590F83D1090F83E30C26AB1
:10369000048D64B1212903D0402B21D122291FD1CF
:1036A000418DA1B390F83E10402937D046E0212942
:1036B000F2D120230021082A13D0202A11D012F59C
:1036C000803F0ED00268546824F4E06454601122F4
:1036D000026380F83E1080F83D3000BFFEF744F9E9
:1036E00010BD0268546824F4E064546002681468F1
:1036F00044F400741460016380F83D3090F83E207B
:1037000080F83E10402AE9D1FEF7C7F910BDFFE767
:103710000068416821F480614160F7E7016DC1B143
:10372000016D012922D0016D0229EFD190F83D10E1
:10373000222923D090F83D102129E7D1416A02685F
:1037400009781161416A491C4162418D491E4185D8
:10375000DCE7C16C0129816C02D0C1F3072107E0CD
:103760000268C9B21161016D891C05E0816CC9B2A2
:1037700002681161016D491C0165C7E700680168B5
:1037800041F480710160C1E778B590F83E50C26A9B
:10379000046B90F83D6000230168222E73D1066D02
:1037A0000EB9402D6FD0056D1DB90569B5F5404FB7
:1037B0001BD0458D95B3468D484D012E20D0448DAC
:1037C000022C4DD00C6844F480640C6001684C6895
:1037D000240579D5AA4273D0012A71D0082A6FD066
:1037E000102A6DD0202A6BD06EE04A698A69009257
:1037F0000A6842F480720A60016D491C016578BD57
:10380000AA4214D10A6822F480620A6001684A68F8
:10381000120504D50A6822F4806217E0FFE74A69BE
:103820008A6900920A6842F400720A6050E0082A2D
:1038300010D0202A0ED0122C0AD0042A03D0022A3B
:1038400001D0102AE6D10A6842F480620A603BE0A7
:10385000012ADFD00A6822F480620A600168DEE78C
:10386000042A11D0022A0FD0102A0DD00C6844F47B
:1038700000640C6001684C698C6900940C6824F445
:1038800080640C6008E025E00C6844F480640C60FF
:1038900001684C698969009101684C68240517D555
:1038A000AA4207D0012A05D0082A03D0102A01D045
:1038B000202A0DD14A6842F480524A6008E0FFE7AE
:1038C0004A6842F480524A6001684A6989690091F5
:1038D000036578BD48698869009078BD0000FFFFE6
:1038E00090F83E10402910D00169B1F5804F19D0F1
:1038F000016DB1B3016D012910D1416C5FF0F1028E
:1039000001F4407142EAD11106E0016D0029416CD9
:1039100005D0C9B241F0010100680161704701F0B2
:10392000FE01F9E790F83D102129416C07D0C9B29A
:1039300041F0010102681161416B31B902E001F00F
:10394000FE01F7E7826B002AE8D0896A19B9816B1A
:10395000896A0029E2D00068416841F40061416051
:103960007047FFE7416CF02201F44071CAE70000A4
:103970002DE9F843044600680D46DDE90897016823
:103980009846164641F4807101604B4600224FF084
:1039900001112046009700F04BF9E0B9216805F0CD
:1039A000FE0008613B464A461549204600F074F97E
:1039B00088B920684169806900903A4649462046A6
:1039C00000F0B5F950B1206C042804D120680168DA
:1039D00041F4007101600120BDE8F883F5B2B8F14F
:1039E000010F09D02168300A08613A46494620464D
:1039F00000F09DF90028E6D1206805610020EBE782
:103A0000020001002DE9F04190F83D40C26A002318
:103A100020261C4F01686FF48065082A01D0202AF7
:103A200001D1282C04D0212C16D04D61BDE8F081A5
:103A3000C7624A6822F4E0624A6001684D61016829
:103A40000A6822F480620A60036380F83D6080F8AF
:103A50003E30FDF787FFE9E7C7622122026380F865
:103A60003D6080F83E304A6822F4E0624A600168B6
:103A70004D6101680A6822F480620A60FEF723F94A
:103A8000D4E700000000FFFFF8B590F83D60044661
:103A90000068416821F4E0614160206800254169C7
:103AA0000091016841F0010101602068016821F482
:103AB0008061016020684168090520D5474F222EAA
:103AC00048D02A2E46D0616B096849686185618DAE
:103AD00019B1216C41F004012164416821F40061B5
:103AE0004160606BFDF7E2FA012808D0606B476324
:103AF000606BFDF78FFA10B1606B416B8847608D8A
:103B000008B320684169C943490708D40069616A5C
:103B10000870606A401C6062608D401E608520688D
:103B20004169C943490608D40069616A0870606A3E
:103B3000401C6062608D401E6085608D18B1206CF5
:103B400040F004002064206C00B32046BDE8F8403B
:103B5000FFF7A8BBA16B096849686185618D19B140
:103B6000216C41F004012164416821F4006141604D
:103B7000A06BFDF79BFA0128C1D0A06B4763A06B37
:103B8000FDF748FA0028BAD0A06BB6E72A2E06D176
:103B90002563282084F83D002046FEF793F894F82A
:103BA0003D10202028290DD0216B222901D0222E62
:103BB00007D1256384F83D0084F83E502046FEF787
:103BC00081F8F8BD0649E162256384F83D0084F878
:103BD0003E502046FDF7C6FEF8BD0000ED3000085F
:103BE0000000FFFF70B516460D4604460DE0204666
:103BF000FFF7F8FB08B1012070BD681C05D0FDF788
:103C00005FFC801BA84207D835B120684069C043DB
:103C10004007ECD4002070BD002044F8300F202174
:103C20006173A073216941F0200121612073E2E7F3
:103C30002DE9F0471E4690460D460446C1F307475E
:103C4000DDF8209008E0701C06D0FDF739FCA0EBF1
:103C50000900B0420FD876B12068012F18D08069D2
:103C600025EA00000004000C14D000214145EAD0F0
:103C70000020BDE8F087002044F8300F2021617358
:103C8000A073216941F02001216120730120F0E738
:103C90004069E5E70121E9E72DE9F0479A469146B9
:103CA0000E46044600254FF02008C1F3074725E0E3
:103CB00020684069C043400514D42068016841F47D
:103CC0000071016021686FF480604861256384F8A9
:103CD0003D8084F83E50206C40F00400206484F85D
:103CE0003C501FE0B9F1FF3F08D0FDF7E9FBA0EB26
:103CF0000A0149450CD8B9F1000F09D02068012FFD
:103D000013D0806926EA00000004000C0BD0CFE736
:103D100044F8305F84F80D80A573206940F02000DE
:103D2000206125730120BDE8F0874069EAE770B59E
:103D300016460D4604460DE02046FFF753FB08B13A
:103D4000012070BD681C05D0FDF7BAFB801BA8429E
:103D500007D835B120684069C0430006ECD4002084
:103D600070BD002044F8300F20216173A0732169D9
:103D700041F0200121612073E2E700003EB50024FC
:103D800011480094019402940E4984600160012559
:103D90000573047505614FF460214460C161FCF74F
:103DA000A7FF08B1FCF748FE07200094CDE90150B9
:103DB00069460548FCF7A8FE002801D0FCF73CFE48
:103DC0003EBD00000024014054050020074910B505
:103DD000054808600846FDF7D3F8002803D0BDE881
:103DE0001040FCF729BE10BD003002401C0000202E
:103DF000214808B5416941F0010141614069002253
:103E000000F00100009011460B20FDF7BDFF0B20D4
:103E1000FDF7ACFF002211460C20FDF7B5FF0C208A
:103E2000FDF7A4FF002211460D20FDF7ADFF0D2088
:103E3000FDF79CFF002211460E20FDF7A5FF0E2086
:103E4000FDF794FF002211460F20FDF79DFF0F2084
:103E5000FDF78CFF002211461020FDF795FF102082
:103E6000FDF784FF002211461120FDF78DFFBDE80C
:103E700008401120FDF77ABF0010024070B586B0EF
:103E800000241C480094019402940394816941F039
:103E900010018161816901F010010491816941F093
:103EA00004018161816901F004010491816941F09B
:103EB000080181618069104E00F0080041F2070599
:103EC0000490002229463046FDF7F4FA01200095BF
:103ED000CDE901040220039069463046FDF7FAF966
:103EE0001020CDE90004694630460294FDF7F2F94E
:103EF00006B070BD00100240000C01400D4810B526
:103F00000B4901600C49416000214FF480428160FF
:103F1000C0E9031241618161C1610162FDF768FC82
:103F2000002803D0BDE81040FCF786BD10BD00009E
:103F300000540040C8050020A08601001CB50024E4
:103F40001E4801941C4900940160611EC0E90114DF
:103F5000FEF786FB08B1FCF76FFD01211748FEF75D
:103F600049FA45F25002904225D001211348FEF74C
:103F700049FA0C208DF804008DF805408DF80640B4
:103F8000002201A90D48FEF7BDFC08B1FCF754FD65
:103F900006208DF800008DF8010014208DF8020035
:103FA0008DF80300002269460448FEF749FC00280A
:103FB00001D0FCF741FD1CBD00280040A4060020F4
:103FC00010B58CB024216846FCF7EFF800241648A1
:103FD00009944FF080410A9401600321C0E9011463
:103FE0004FF6FF72C0E90324846100910120CDE9FE
:103FF00001400F21CDE90341CDE90540CDE907415D
:1040000069460948FEF732FD08B1FCF715FD099431
:1040100009A905480A94FEF708FD002801D0FCF71D
:104020000BFD0CB010BD0000B80600200C4810B508
:104030000A4901604FF4E1314160002181600C22A6
:10404000C160C0E904128161C161FEF757FE00281A
:1040500003D0BDE81040FCF7EFBC10BD00380140B4
:10406000F80600200C4810B50A4901604FF41651BB
:104070004160002181600C22C160C0E904128161AD
:10408000C161FEF73BFE002803D0BDE81040FCF7FD
:10409000D3BC10BD0048004038070020FEE7704741
:1040A000704700000148FEF755BA0000A406002042
:1040B000010901EB810100F00F0000EB4100C0B2EB
:1040C0007047002102E00A38C0B2491C0A28FAD21F
:1040D000090740EA116070472DE9F04104460025C8
:1040E000C07B627BA37B42E0012A16D0032A14D056
:1040F000052A12D0072A10D0082A0ED00A2A0CD07E
:104100000C2A0AD0042A10D0062A0ED0092A0CD074
:104110000B2A0AD0022A0DD028E01F2B0CD30C2A20
:1041200005D101221346401C20E01E2B04D301239D
:10413000521C1BE01C2B02D203F1010316E011D12B
:1041400083B29E0710D16426B3FBF6F706FB173641
:1041500036B94FF4C876B3FBF6F706FB17331BB935
:104160001D2303E01D2B01D1032201236D1C8D4271
:10417000BAD3D1B2E0736173DAB2A27300F057F828
:104180002073BDE8F08170B50446FDF799F9054646
:104190004FF47A7606E0FDF793F9401BB04201D95F
:1041A000032070BD206840688006F4D5206841680F
:1041B00041F010014160002070BD000070B5044660
:1041C0000068416821F010014160FDF779F905466A
:1041D0004FF47A7607E000BFFDF772F9401BB0425A
:1041E00001D9032070BD206840688006F4D5002006
:1041F00070BD00000148FEF76AB90000A406002067
:104200000168086A496A89B241EA0040704700685B
:1042100081698AB2C1698BB2816989B28A4203D04D
:10422000C06961F31F40704743EA02407047F0B530
:104230006424C1EBC1030927A500072603EB011382
:104240000329B3FBF7F100F5FA60114401440AD2E7
:10425000401EB0FBF4F201EB9001B0FBF5F0891ABF
:104260000844001D08E0B0FBF4F201EB9001B0FB44
:10427000F5F0891A0844801CB0FBF6F106FB11002A
:10428000C0B2F0BD70B50D4606460024FFF77BFFB7
:1042900048B93168280C08623168A8B248623046D3
:1042A000FFF78CFF00B10124204670BD70B50D46AC
:1042B00006460024FFF767FF48B93168280C88617B
:1042C0003168A8B2C8613046FFF778FF00B1012419
:1042D000204670BD2DE9F04790460D46121A5F1B2F
:1042E000044678005142C2EB470600EB4109DDF875
:1042F00020A00CE0A9B2A0B2524600F00DF8002EAA
:1043000002DA06EB470601E04E446D1C641C44458E
:10431000F0DDBDE8F087000070B5802813D2402999
:1043200011D20B4B012401F007051E79AC40094B5B
:10433000C90800EBC1100EB132B101E0012A03D06F
:10434000195CA143195470BD195C2143FAE70000C0
:10435000380000208808002028B1FF224FF4806137
:104360000248FBF71BBF0022F8E700008808002086
:10437000014A1080518070473800002010B54FF47A
:10438000FA70FCF741FB0021AE2000F015F9002186
:10439000202000F011F90021084600F00DF900215D
:1043A000B02000F009F90021C82000F005F9002133
:1043B000084600F001F90021102000F0FDF800216E
:1043C000402000F0F9F80021812000F0F5F80021EC
:1043D000084600F0F1F80021A12000F0EDF80021DE
:1043E000A62000F0E9F80021A82000F0E5F800215F
:1043F0003F2000F0E1F80021A42000F0DDF80021CA
:10440000D32000F0D9F80021084600F0D5F80021AB
:10441000D52000F0D1F80021F02000F0CDF80021E7
:10442000D92000F0C9F80021222000F0C5F80021B1
:10443000DA2000F0C1F80021122000F0BDF80021C0
:10444000DB2000F0B9F80021202000F0B5F80021B1
:104450008D2000F0B1F80021142000F0ADF800210B
:10446000AF2000F0A9F80020FFF776FF00F090F8E9
:10447000034800210180418001214171084610BD9F
:10448000380000202DE9FF4FDFF8D4A00E46097850
:10449000BAF800000827014450468029408803D21A
:1044A00071780144402905D30022AAF80020801C1D
:1044B000AAF80200B078C01D90FBF7F000F0FF0BE7
:1044C00000203DE0002435E00098B17820384143D9
:1044D00008FB07102044716880B2039A11F800901D
:1044E000012A05D120B11CB1401E085C40EA09092F
:1044F0005FF00005BAF8022029FA05F008FB072151
:104500002944C00789B205D0BAF80000029A2044B5
:1045100080B207E0029A02B35FF00002BAF800002E
:10452000204480B2FFF7F8FE6D1CADB2BD42E1D36E
:10453000641CA4B23078A042C6D808F1010080B251
:1045400080465845BED3BAF8001032781144AAF814
:104550000010009804B0BDE8F08F0122DEE70000F3
:1045600038000020F0B51D4616460F4604460AE006
:104570002B4632463946FFF785FF2178884201D025
:10458000C8B2F0BD641C20780028F1D1C0B2F0BDE3
:104590001CB54FF480610548CDE90001012340229C
:1045A00078210348FDF77AFA1CBD00008808002036
:1045B000C8050020FFF7ECBF1CB5002201928DF862
:1045C00004108DF8050001200090022301AA782133
:1045D0000348FDF7CBF9002800D001201CBD0000E6
:1045E000C80500207047FDF76FBB30B593B0282198
:1045F0006846FBF7DAFD14210AA8FBF7D6FD002474
:104600000F94062000900120039004901020059044
:104610000004CDE9084011940225109407956846DE
:10462000FDF758FD0F200A90CDE90B540D940021A1
:104630000AA80E94FDF77CFC03200F90E801CDE959
:1046400010040FA8FDF706FC13B030BD0E4801683A
:1046500041F00101016041680C4A1140416001686C
:104660000B4A11400160016821F48021016041681A
:1046700021F4FE0141604FF41F0181600021C162FD
:104680000449C00308607047001002400000FFF8B2
:10469000FFFFF6FE08ED00E0F0B502681E4B1F4C70
:1046A0001F4D4FF0804E984205D0704503D0A04278
:1046B00001D0A84203D122F070064A683243194E55
:1046C000194FDFF868C098420BD0704509D0A0425E
:1046D00007D0A84205D0B04203D0B84201D060450F
:1046E00003D122F44074CA6822434C6922F080024C
:1046F000224302608A68C2620A688262984205D0D8
:10470000B04203D0B84201D0604501D109690163CC
:1047100001214161F0BD0000002C01400004004077
:1047200000080040004001400044014000480140B2
:1047300010B5406A0021C185C184FEF755FA10BD4D
:1047400070B5446A2068406994F83910C0F3C0100D
:104750000025212904D118B1E584204600F062F833
:104760002068406994F83A10C0F38010222904D1DF
:1047700018B1E585204600F047F8E06B40F01000E6
:10478000E0632046FEF730FA70BD10B50146406A7E
:1047900009680968890613D40021C1850168CA68BF
:1047A00022F48072CA6001684A6922F001024A61FB
:1047B00001684A6922F040024A61202180F83A10DB
:1047C000FEF7E4FB10BD10B5406AFEF7E0FB10BD3C
:1047D00010B50146406A0968096889060CD40021B1
:1047E000C18401684A6922F080024A610068C16898
:1047F00041F04001C16010BDFEF768FC10BD10B56E
:10480000406AFEF764FC10BD0168CA6822F4907229
:10481000CA6001684A6922F001024A61202180F8D9
:104820003A1070470168CA6822F0C002CA602021AD
:1048300080F83910704710B590F83A10222901D04D
:10484000022010BD8168B1F5805F11D00169002997
:1048500001681FD0496801F07F03816A4A1C8262A7
:104860000B70C18D491E0904090CC18518D02BE0BD
:104870000269816A002A0268526805D0D2B20A80B1
:10488000816A491C8162ECE7C2F308020A80816AEE
:10489000891CF7E74A68816A4B1C83620A70E0E76B
:1048A0000168CA6822F02002CA600168CA6822F45E
:1048B0008072CA6001684A6922F001024A612021BF
:1048C00080F83A10FEF762FB002010BD2DE9F041A0
:1048D000044600680169E26821F440511143016116
:1048E0002169A068E26908436169114322680843AD
:1048F000D16849F20C6399430143D1602068416952
:10490000A26921F4407111434161E16964253226B5
:10491000B1F5004F3848216804D081423DD1FDF700
:104920008BFB3CE0814202D1FDF786FB01E0FDF705
:1049300073FB00EBC00101EB001160686FF0180C15
:104940004000B1FBF0F3B3FBF5F3B1FBF0F7B1FBC3
:10495000F0F203FB0CF307EB830306EBC303B2FB9C
:10496000F5F2B3FBF5F3120103F0F80302EB430297
:10497000B1FBF0F3B1FBF0F0B0FBF5F000FB0CF095
:1049800003EB800006EBC000B0FBF5F000F0070081
:10499000216810448860BDE8F081FDF73DFB00EB25
:1049A000C00101EB001160686FF018078000B1FBD7
:1049B000F0F2B2FBF5F2B1FBF0F37A4303EB8202C3
:1049C000B1FBF0F306EB0212B2FBF5F2B3FBF5F329
:1049D00002F0F00202EB0312B1FBF0F3B1FBF0F0D6
:1049E000B0FBF5F0784303EB800006EB0010B0FB62
:1049F000F5F000F00F00CBE70038014090F83910D7
:104A0000212901D0022070478168B1F5805F016AD9
:104A10000BD04A1C0262026809785160C18C491EA1
:104A20000904090CC1840ED017E009880268C1F39B
:104A30000801516001690029016A02D0491C016224
:104A4000ECE7891CFBE70168CA6822F08002CA60B3
:104A50000068C16841F04001C160002070472DE945
:104A6000F041984617460E460446069D1DE0681C18
:104A70001BD02DB1FCF724FDA0EB0800A84214D9EF
:104A80002068C16821F4D071C1602068416921F0BB
:104A900001014161202084F8390084F83A000020A7
:104AA00084F838000320BDE8F0812068006836EA09
:104AB000000004D00020B842D9D00020F3E7012044
:104AC000F9E7000010B50448FEF790F8BDE8104083
:104AD000014800F05DB80000F806002070B50546FA
:104AE00001460BA0FBF76CFB0D4C60B129460DA0F5
:104AF000FBF766FB00280AD120700EA1BDE87040CC
:104B0000144800F0C1BE0120207013A1F6E770BD6B
:104B10005553415254335F4563686F3D310D0A0070
:104B2000000000205553415254335F4563686F3D88
:104B3000300D0A000D0AD2D1B9D8B1D5B4AEBFDA62
:104B400033CAFDBEDDBBD8CFD4B5BDB4AEBFDA31FC
:104B50000D0A0000F80600200D0AD2D1B4F2BFAA57
:104B6000B4AEBFDA33CAFDBEDDBBD8CFD4B5BDB459
:104B7000AEBFDA310D0A000010B50448FEF736F872
:104B8000BDE81040014800F003B8000038070020DD
:104B9000F8B5064600682C4988421FD10168C94310
:104BA000C9064FD40168406800903046FDF7F0FF19
:104BB000264800684068C0F5806082B224480078CA
:104BC000012803D123492448FEF740FA3046BDE8C6
:104BD000F8404FF480621F49FEF78CB91F498842A4
:104BE00030D10168C943C9062CD4016840680090DF
:104BF0003046FDF7CDFF1548443800684068C0F5E1
:104C0000807084B2204600F009FE05462246144911
:104C1000FBF7B2FA21461248FBF7C7FA4FF480724D
:104C20000F493046FEF766F90123224629460A4815
:104C3000FEF7AEF92846FFF751FF2846BDE8F840D9
:104C400000F0E2BCF8BD0000004800400008002071
:104C50000000002054010020F80600200038014028
:104C600054000020FEE700000FB4054B10B503A967
:104C7000044A029800F014F910BC5DF814FB00001F
:104C8000F1550008480000200FB4084B10B504A9E6
:104C900002AA039800F004F9044602A9002000F0DB
:104CA000A1FC204610BC5DF814FB0000E55500088F
:104CB0007CB5044600201D46164600290BD0491E2F
:104CC000CDE90041044B6A462946304600F0E8F839
:104CD000009A002111707CBDCF5500080907090E0C
:104CE000002804DB00F1E02080F80014704700F099
:104CF0000F0000F1E02080F8141D704702E008C8A2
:104D0000121F08C1002AFAD170477047002001E045
:104D100001C1121F002AFBD1704700002DE9FF5F7F
:104D200082B00021DDE90430020DDDF840B003431C
:104D300018D044F61050A2F2FF32424315141198D5
:104D400001281FD0A5EB0B00401C5FEA000A4FF0C2
:104D500000064E4FDFF83891B046504615D5CAF1DF
:104D6000000413E0119801244AA3012801D16FEA3D
:104D70000B010298119AC0E90031C0E9024206B065
:104D8000BDE8F09FCBF10000DFE704460021404A78
:104D9000491842EB0450CDE9001012E0E00707D0BB
:104DA00032463B4640464946FBF718FA804689465C
:104DB00032463B4610461946FBF710FA06460F46A8
:104DC0006410002CEAD1DDE90401DDE90023BAF129
:104DD000000F06DAFBF702FA42464B46FBF7FEF9F4
:104DE00005E0FBF742FC42464B46FBF73EFC04461F
:104DF0000E460022284BFBF7BFFC03D84FF0FF30D4
:104E0000014607E00022254B20463146FBF786FB92
:104E1000FBF79AFC102409E0002C0ADB0A2200238D
:104E2000FBF7B7FA039B30321A55641E50EA0102B1
:104E3000F2D1641C039AC4F111031444119A012A9B
:104E400003D0012208430DD10AE0084304D000201A
:104E50004FF0110B119072E7A3EB0B056D1E0DE0E7
:104E60005B4504DD4FF0000205F1010504E003DAC3
:104E70004FF00002A5F10105002AECD0029811992B
:104E8000C0E90231C0E9004579E7000000001440A4
:104E90000000F03F300000000000F0430000E03F61
:104EA0002DE9FF4F95B09B468946064600250FE247
:104EB000252877D100242746F84A0121059400E0EF
:104EC000044316F8013F203B01FA03F01042F7D1EA
:104ED00030782A2811D06FF02F033078A0F13002FB
:104EE000092A16D8059A44F0020402EB820203EB69
:104EF00042021044761C0590EFE759F8042B059206
:104F0000002A03DA504244F40054059044F00204AD
:104F1000761C30782E2816D116F8010F44F00404C0
:104F20002A280DD06FF02F023078A0F13003092B22
:104F300009D807EB870302EB4303C718761CF3E796
:104F400059F8047B761C30786C280FD006DC4C288E
:104F500017D068280DD06A2814D104E0742810D026
:104F60007A280FD10DE044F400140AE044F48014D0
:104F700001E044F440147278824202D104F58014B6
:104F8000761C761C307866280BD013DC582877D036
:104F900009DC002875D04528F6D04628F4D04728EB
:104FA0001AD19DE118E0632835D0642879D06528AE
:104FB00012D195E1702873D008DC6728F1D06928F8
:104FC0006FD06E280DD06F2806D1B5E073282CD095
:104FD000752875D0782874D05A46179990476D1C5B
:104FE00075E1C4F30250022809D003280DD0D9F886
:104FF000001004280DD00D6009F1040967E1D9F80B
:105000000010EA17C1E90052F6E7D9F800100D8048
:10501000F2E70D70F0E719F8041B8DF8001000207E
:105020008DF80100EA46012003E059F804AB4FF087
:10503000FF3061074FF0000102D40DE008F10101DB
:105040008846B9420FDA8045F8DB1AF808100029C3
:10505000F4D108E008F1010188468142FADB1AF830
:1050600008100029F6D105985B46A0EB08072146F9
:105070003846179A00F094FA284400EB080507E038
:105080004DE029E10DE01AF8010B5A4617999047B7
:10509000B8F10108F7D25B4621463846179A13E16A
:1050A00042E00A220092C4F302524FF0000A022AA0
:1050B00008D059F804CB032A4FEAEC710AD00DE06E
:1050C00029E02AE009F1070121F00702F2E802C114
:1050D000914609E00FFA8CFC4FEAEC71042A03D1E7
:1050E0004FFA8CFC4FEAEC71002907DA0A460021DE
:1050F000DCF1000C61EB02012D2202E0220504D557
:105100002B228DF80420012203E0E20701D02022A7
:10511000F7E7904659E00A2102E010220DE0102145
:105120004FF0000A00910BE010224FF0000A44F00B
:1051300004040827009203E008224FF0000A0092BE
:10514000C4F30252022A05D059F804CB0021032AE5
:1051500008D009E009F1070121F00702F2E802C1D5
:10516000914605E01FFA8CFC042A01D10CF0FF0CDB
:105170004FF00008220728D5702806D0009B83F046
:10518000100353EA0A0305D00EE040228DF80420F4
:10519000012208E05CEA010206D030228DF80420EA
:1051A0008DF8050002229046009B83F0080353EA25
:1051B0000A030AD15CEA010201D1620705D5302257
:1051C0008DF804204FF001087F1E582804D034A029
:1051D00003900EA802900DE036A0F9E75346604612
:1051E000009AFBF7D6F884460398825C0298401E2A
:1051F000029002705CEA0100F0D1029806A9081A38
:1052000000F1200A600702D524F4803400E0012771
:10521000574502DDA7EB0A0000E0002000EB0A0181
:10522000009005984144401A0590E00306D45B467F
:105230002146179A059800F0B3F90544002706E0C7
:1052400001A85A46C05D179990476D1C7F1C4745C1
:10525000F6DBE0030CD55B462146179A059800F073
:105260009FF9054404E030205A46179990476D1C79
:105270000099481E00900029F5DC08E00298029988
:105280005A460078491C0291179990476D1CBAF153
:105290000001AAF1010AF1DC65E100000928010022
:1052A000303132333435363738396162636465669C
:1052B000000000003031323334353637383941425E
:1052C000434445460000000000F058F90544761CB0
:1052D000307800287FF4ECAD19B02846BDE8F08F97
:1052E000620700D4062709F1070222F0070CFCE848
:1052F0000223E14603F000485FEA080C02D00FF2F7
:10530000702C0DE05FEA045C02D50FF2682C07E018
:105310005FEAC47C02D00FF2602C01E0AFF2700CA7
:105320004FF0FF3823F00043CDF850C065280CD073
:1053300006DC452809D046281DD047283DD13DE050
:10534000662818D067287ED138E00021112F01DBB4
:10535000112000E0781CCDE9000106A90EA8FFF796
:10536000DDFCDDE90F010E9A03910021009207F1A7
:10537000010A04914DE04FF000400097CDE9011083
:1053800006A90EA8FFF7CAFCDDE90F0203920E9BE7
:1053900011990022DDF80CA00093049211B9791C38
:1053A00000EB010AB7EB0A0004D4C0F1FF3007F1AB
:1053B000010A0490AAEB0700019044E0012F00DAF3
:1053C00001270021112F01DD112000E03846CDE931
:1053D000000106A90EA8FFF7A1FCDDE90F010E9A56
:1053E0000391002104910092BA4621070CD403993D
:1053F000514500DA8A46BAF1010F05DD009AAAF19B
:105400000101515C302908D0B84202DA10F1040FD2
:1054100006DA0121CDE9011015E0AAF10101E9E761
:10542000002805DC049901440491AAEB000102E084
:10543000411C514500DD8A460499401A401C0190E8
:105440004FF000400290200704D40198504501DB42
:10545000CDF8048000208DF84F0002980DF14F0721
:10546000B0F1004F25D02B200E9002984FF002088B
:1054700000280CDA404202902D200E9007E00A210D
:105480000298FAF770FF3031029007F8011DB8F169
:105490000001A8F10108F2DC02980028EFD1791E82
:1054A0000E980870307800F0200040F0450007F8B2
:1054B000020D12A8C01B00F107081498007800B173
:1054C000012000EB0A01019801EBE07105984144CD
:1054D000401A401E0590E00306D45B462146179A09
:1054E000059800F05DF805441498007818B15A4604
:1054F000179990476D1CE00324D55B462146179A07
:10550000059800F04DF805441CE00498002807DBDE
:10551000DDE90301884203DD0098405C179901E052
:10552000179930205A469047049805F10105401C10
:1055300004900198401E019004D12E205A461799DC
:1055400090476D1CBAF10001AAF1010ADDDC05E00B
:1055500017F8010B5A46179990476D1CB8F10001D6
:10556000A8F10108F4DC5B462146179A0598ABE6E2
:105570002D0000002B000000200000002DE9F0416C
:10558000044600251E461746880404D405E0394623
:105590002020B0476D1C641EF9D52846BDE8F08177
:1055A0002DE9F041044600251E469046C80301D56A
:1055B000302700E02027880404D505E0414638461E
:1055C000B0476D1C641EF9D52846BDE8F0814A68D5
:1055D000002A06D00A68531C0B6010704868401EF1
:1055E000486070470A68531C0B60107070470000D9
:1055F00013B54FF6FF73012269460248FDF7C8FC58
:1056000000981CBDF806002010B5002821D0114BD1
:105610000022001F196803E0814203D80A46496846
:105620000029F9D152B11368841A9C4204D1006850
:1056300018441060104602E0506000E0186039B174
:1056400002680B1A934203D10B681A44026049683E
:10565000416010BD4C00002008B5FCF73DFBFBF796
:10566000B7F9FEF7C2FFFEF709FCFEF7C1FBFEF734
:1056700085FBFEF7DBFCFEF741FCFEF7A1FCFEF725
:105680005DFCFEF7A3FBFEF7EDFC41480068C16836
:1056900041F01001C1603F480068C16841F010014D
:1056A000C1604FF480723C493948FDF723FC4FF448
:1056B00080623A493748FDF71DFC39A0FFF7D4FA5C
:1056C0003FA0FFF7D1FA44A0FFF7CEFA4748FFF713
:1056D000CBFAFEF753FE4648FBF7B0F94548FCF716
:1056E00014FF00210A22084600F0ECF800215620A1
:1056F000FEF73EFE002301223F4940A0FEF732FFA5
:10570000012009230090802219460020FEF7E2FDC7
:10571000012208213320FEF7FFFD0122072133205B
:10572000FEF7FAFD012206213320FEF7F5FD0122E6
:1057300008215220FEF7F0FD012207215220FEF73A
:10574000EBFD012206215220FEF7E6FD0122082191
:105750006020FEF7E1FD012207216020FEF7DCFD5D
:10576000012206216020FEF7D7FD25A1084800F0A0
:105770008BF80A2225A1064800F086F8142223A1FE
:10578000034800F081F823A1014800F07DF8FEE70E
:10579000F8060020380700205400002054010020A3
:1057A000B1BECFB5CDB3D3C9D2AEF6D5BBF9B6BD78
:1057B000BDCCCDBDB9A8D3EEBFAAB7A20D0A0000DB
:1057C00032303230C4EA34D4C235C8D5BFAACABCDC
:1057D000C9E8BCC60D0A0000B4AEBFDA31B3F5CAE1
:1057E000BCBBAFCDEAB3C90D0A000000485B00089E
:1057F00054050020A4060020400000204D000000B9
:105800006D79746573740D0A0000000025640D0A3B
:1058100000000000746573740D0A0000F0B50B30D1
:10582000154D20F007010024144A0FE003688B4255
:105830000BD38B4205D95E1A43184768C3E900674A
:1058400000E04368136002C004E0021D10680028F5
:10585000ECD12046002802D1286808B10020F0BD14
:10586000064A07481060074A121A22F00702C0E9E8
:10587000002401202860D7E7500000204C000020C1
:105880008C0C0020880E00200FB44FF4807170B58E
:10589000C0B0064646AB6846459AFFF709FA6C4623
:1058A0004FF6FF7506E02B46012221463046FDF7F4
:1058B0006FFB641C20780028F5D140B070BC5DF807
:1058C00014FB0000FEB514460D460646002269464C
:1058D0000C48FCF759FE002002909DF800000022C1
:1058E00030448DF804009DF8010001A928448DF88A
:1058F00005009DF8020020448DF806000148FCF7E1
:105900002BFFFEBDA40600200000000000000000E8
:105910000102030406070809000000000102030455
:105920000000000000000000002F00000000070041
:10593000070000147F147F1400242A7F2A120062BB
:105940006408132300364955225000000503000067
:1059500000001C224100000041221C000014083EEF
:1059600008140008083E0808000000A060000008B5
:105970000808080800006060000000201008040209
:10598000003E5149453E0000427F400000426151C7
:105990004946002141454B31001814127F10002761
:1059A00045454539003C4A49493000017109050324
:1059B00000364949493600064949291E0000363655
:1059C00000000000563600000008142241000014B8
:1059D0001414141400004122140800020151090695
:1059E00000324959513E007C1211127C007F494916
:1059F0004936003E41414122007F4141221C007F47
:105A000049494941007F09090901003E4149497A54
:105A1000007F0808087F0000417F410000204041CE
:105A20003F01007F08142241007F40404040007F3A
:105A3000020C027F007F0408107F003E4141413E7E
:105A4000007F09090906003E4151215E007F0919C6
:105A500029460046494949310001017F0101003FC3
:105A60004040403F001F2040201F003F4038403F43
:105A700000631408146300070870080700615149A7
:105A8000454300007F41410000552A552A5500003A
:105A900041417F00000402010204004040404040B8
:105AA000000001020400002054545478007F484450
:105AB000443800384444442000384444487F003887
:105AC0005454541800087E0901020018A4A4A47CB0
:105AD000007F080404780000447D4000004080847A
