:020000040800F2
:10000000C80F0020350100086F390008872B000851
:100010006D390008D5090008E94600080000000015
:10002000000000000000000000000000D9410008AE
:10003000270C000800000000793D0008DB410008A3
:100040004F0100084F0100084F0100084F01000850
:100050004F0100084F0100084F0100084F01000840
:100060004F0100084F0100084F010008D90B00089C
:100070004F0100084F010008E50B0008F10B0008D4
:100080004F0100084F0100080D09000800000000A2
:100090000000000000000000000000004F01000808
:1000A0004F0100084F0100084F0100084F010008F0
:1000B0004F0100084F0100084F010008952B000870
:1000C000892B00084F0100084F0100084F0100086C
:1000D0004F010008DD4600084F0100084F010008ED
:1000E0004F0100084F0100084F0100080000000008
:1000F0000000000000000000000000000000000000
:1001000000000000000000000000000000000000EF
:1001100000000000000000004F0100084F0100082F
:10012000DFF80CD000F094FB00480047995000081D
:10013000C80F00200648804706480047FEE7FEE754
:10014000FEE7FEE7FEE7FEE7FEE7FEE7FEE7FEE787
:100150003942000821010008202A04DB203A21FA54
:1001600002F00021704721FA02F3D040C2F12002D0
:100170009140084319467047D2B201E000F8012BC4
:10018000491EFBD270470022F6E710B513460A4617
:1001900004461946FFF7F0FF204610BDF0B480EA90
:1001A0000102D40F4200B2EB410F02D202460846D0
:1001B00011464A0042D0C30DDDB2C1F3C752AD1A99
:1001C000202D35DAC1F3160141F4000204B1524288
:1001D000C5F1200602FA06F12A411044B3EBD05FC4
:1001E00023D0C4B1012DA0EBC35009DCF0BC4FF00B
:1001F000004202EAC352DBB200F5000000F0C5B9CC
:10020000400000F1807000EBC350A0F1807040EA24
:10021000D170490009E0490841EAC071A0EBC35020
:1002200000F50000400800EBC350F0BC00F0A4B99A
:100230006142012202EB4101001BF6E7F0BC70476E
:1002400081F00041AAE780F00040A7E72DE9FE4FCA
:1002500081EA030404F0004421F0004100944FF0CF
:10026000000B23F0004350EA01045ED052EA03047D
:100270005BD0C3F30A54C1F30A552C44A4F2F334FF
:100280000194A0FB0254C1F3130141F48011C3F3A4
:10029000130343F4801301FB024400FB034E840A62
:1002A000970A44EA815447EA8357A4FB07680295FA
:1002B0008D0A05FB07854FEA932C04FB0C54270598
:1002C000029D4FEA065847EA1637B5EB08056EEB74
:1002D000070C870E920E47EA811742EA8312A7FBAA
:1002E0000201B6EB0B0164EB00042B0D43EA0C3367
:1002F0005E1844EB1C50DA465146E7FB0201C5F399
:1003000013044FEA0B3343EA14534FEA0432019CBF
:1003100043EA0603A4F10C040294009CCDE900B466
:1003200000F070F903B0BDE8F08F00200146F9E756
:100330002DE9F04D81EA030404F0004B21F0004563
:1003400014464FF0000A23F0004150EA050220D085
:1003500054EA01021DD0C5F30A570246C5F3130340
:10036000C1F31300C1F30A5640F4801543F480131F
:10037000A7EB0608101BD64608F2FD3873EB050004
:1003800002D308F1010801E092185B41B8F1000FB7
:1003900003DA00200146BDE8F08D00204FF4801103
:1003A000064684460EE0171B73EB050705D3121BA8
:1003B00063EB050306434CEA010C49084FEA3000A1
:1003C00092185B4150EA0107EDD152EA030012D0C6
:1003D00082EA040083EA0501084305D0101BAB4103
:1003E00006D20122002306E000224FF0004302E083
:1003F0006FF0010253101AEB06004CEB085110EBA2
:100400000A0041EB0B01BDE8F04D00F0ECB896237B
:100410000022114600F0B9B80EB540F23341029106
:100420000021CDE900110A460B4600F0EBF803B0BD
:1004300000BD20F00040C10DC0F3160040F40000E4
:100440007F2901DA00207047962903DCC1F196016B
:10045000C8407047963988407047C1F30A5210B5BA
:10046000C1F3130140F2FF3341F480119A4201DAE3
:10047000002010BD40F233439A42A2F2334203DC23
:100480005242FFF769FE10BD904010BD00F00042DF
:1004900030F000400AD0C10D01F56071C0F31600C4
:1004A00042EA0151C208400711437047002001464B
:1004B000704701F0004330B421F0004150EA0102DE
:1004C00006D00A0DA2F56072C1F31301002A02DC06
:1004D00030BC00207047440F44EAC104C100E0185A
:1004E00030BC00EBC25000F047B830B50B460146B7
:1004F00000202022012409E021FA02F59D4205D3C3
:1005000003FA02F5491B04FA02F52844151EA2F16C
:100510000102F1DC30BD2DE9F05F05460020924676
:100520009B4688460646814640241BE028464146B5
:1005300047462246FFF710FE53465A46C01A9141DD
:1005400010D311461846224600F094F92D1A67EB95
:1005500001084F4622460120002100F08BF917EBDD
:1005600000094E41201EA4F10104DFDC484631465B
:100570002A464346BDE8F09F0029A8BF7047401CAB
:10058000490008BF20F00100704710B4B0FA80FCA9
:1005900000FA0CF050EA010404BF10BC704749B1E6
:1005A000CCF1200421FA04F411FA0CF118BF012156
:1005B00021430843A3EB0C01CB1D4FEA00614FEA36
:1005C000102042BF002010BC704700EBC350104405
:1005D0000029A4BF10BC7047401C490008BF20F090
:1005E000010010BC704710B5141E73F1000408DA46
:1005F000401C41F1000192185B411A4301D120F0E7
:10060000010010BD2DE9F04D92469B4611B1B1FAA3
:1006100081F202E0B0FA80F22032904600F02AF92E
:1006200004460F4640EA0A0041EA0B0153465A4687
:10063000084313D0114653EA010019D0C8F1400213
:100640005046FFF789FD05460E465046594642463C
:1006500000F010F9084305D0012004E02046394697
:10066000BDE8F08D0020054346EAE0762C43374391
:100670000A986305E40AA0EB08000022FD0A44EA98
:1006800047540A3002D500200146E9E70105101958
:100690006941DDE9084500196941BDE8F04DA2E76F
:1006A0002DE9FE4F804681EA0300C00F0C46009002
:1006B00021F0004123F00045B8EB0200A94105D22A
:1006C0004046214690461C460B46024623F0004019
:1006D000104347D0270DC7F30A00C3F30A51029015
:1006E000401A019040286BDAC3F3130040F4801BDA
:1006F0000098924620B10023D2EB030A63EB0B0B68
:1007000001985946C0F14002504600F0B3F8064641
:100710000D4650465946019A00F0BBF810EB080010
:100720006141002487EA115284EAE7731A4340D0FA
:10073000009A62B3019A012A4FEA075215DC001BA6
:1007400061EB02014FF0004202EA0752CDE900429C
:10075000001C41F5801132462B46FFF753FF03B0D2
:10076000BDE8F08F40462146F9E7001B61EB02012E
:10077000001C41F5801300185B412018A2F50017FA
:1007800047EB030140EAD570B6196D4111E06D08E1
:100790004FEA360645EAC0754FEA0752001B61EB87
:1007A0000201001C41F5801149084FEA3000001990
:1007B000514132462B4603B0BDE8F04FFFF713BF5F
:1007C0000098012240000023D0EB020263EBE073AB
:1007D000009821464FEAE074B8EB000061EB040199
:1007E000E9E783F000435BE781F0004158E7C1F39C
:1007F0000A52C1F3130140F2FF3341F480119A42CF
:1008000002DA00200146704740F233439A42A2F2D6
:10081000334202DC5242FFF79FBC00F02BB80000CD
:1008200030B5041E71F1000404DB4FF00044404277
:1008300064EB0101141E73F1000405DB1C464FF04C
:100840000043524263EB0403994208BF904230BD1B
:10085000064C074D06E0E06840F0010394E807000D
:1008600098471034AC42F6D3FFF75EFC38590008C5
:1008700058590008202A04DB203A00FA02F100202F
:1008800070479140C2F1200320FA03F319439040CE
:100890007047202A06DBCB17203A41FA02F043EAE0
:1008A000E07306E041FA02F3D040C2F12002914029
:1008B00008431946704770B58C1810F8015B15F0A5
:1008C000070301D110F8013B2A1106D110F8012BC2
:1008D00003E010F8016B01F8016B5B1EF9D12B07E7
:1008E00005D40023521E0DD401F8013BFAE710F89D
:1008F000013BCB1A921C03E013F8015B01F8015B8A
:10090000521EF9D5A142D8D3002070BD014800F095
:10091000BEBA0000A003002070B5044600688168DC
:10092000C943C9071CD1816821F00101816000F031
:1009300057FE05460FE000BF00F052FE401B0228A4
:1009400009D9A06A40F01000A062E06A40F00100FE
:10095000E062012070BD20688068C043C007EBD012
:10096000002070BDF8B50026044600960068816836
:10097000C943C90728D0816841F00101816013484B
:1009800013490068B0FBF1F000E0401E0090002821
:10099000FBD100F025FE054611E000BF00F020FE6F
:1009A000401B02280BD9A06A40F01000A062E06A48
:1009B00040F00100E06284F824600120F8BD206866
:1009C0008068C043C007E9D10020F8BD10000020B6
:1009D00040420F00FEE7000070B516480024416851
:1009E00021F470014160416841F400014160124D01
:1009F00004E0641CE4B2012000F04AF9D5F83401A7
:100A000010B1642CF5D30DE0642C0BD2002404E06B
:100A1000641CE4B2012000F03BF9D5F8340118B1B0
:100A2000642C04D3012070BD642CF1D3FAE70020BC
:100A300070BD0000001001400000224210B500F01F
:100A4000ADF8FFF7C9FF040004D003A003F04EFE89
:100A5000204610BD09A0F9E7444854313120CEC2E8
:100A6000CAAAB6C8C4A3BFE9B3F5CABCBBAFCAA77C
:100A7000B0DC206572726F72200D0A004448543158
:100A80003120CEC2CAAAB6C8C4A3BFE9B3F5CABC56
:100A9000BBAFB3C9B9A6204F4B200D0A0000000020
:100AA00070B50024104D04E0641CE4B2012000F095
:100AB000EFF8D5F8340108B1642CF5D3002404E034
:100AC000641CE4B2012000F0E3F8D5F8340108B961
:100AD000642CF5D3282000F0DBF8D5F83401002889
:100AE00000D0012070BD00000000224270B500203F
:100AF00004464006050EFFF7D3FF641C2843E4B20A
:100B0000082CF6D370BD00002DE9FC410D460646C9
:100B100000F044F8FFF760FF10B10120BDE8FC8150
:100B200000246F46FFF7E2FF3855641CE4B2052C41
:100B3000F8D39DF800009DF801109DF802309DF853
:100B40000340421823441A449DF80430D2B29A421A
:100B500020D101EB0020FFF75FFC0F4F00223B4646
:100B6000FFF7E6FBFFF7A5FC28609DF803009DF862
:100B7000024000EB0420FFF74FFC00223B46FFF74A
:100B8000D7FBFFF796FC3060200603D5286880F07D
:100B9000004028600020C1E7000024400C4810B548
:100BA000416821F470014160416841F440114160A5
:100BB000084C0020C4F8B401142004F5DA7400F0E5
:100BC0004FF801202060BDE81040282000F060B8F8
:100BD0000010014000002242014800F0FBBA000072
:100BE000D0030020014800F0F5BA000040050020C5
:100BF000014800F0EFBA00008405002030B590F8FD
:100C000040500124AC40C56B6C600468636043686D
:100C1000102B036803D099600068C26030BD9A60F1
:100C20000068C16030BD704710B5002001F0F9FCCC
:100C3000084809490068B0FBF1F0C1B2074801EB70
:100C400041020170C2EBC1114FF6FF7202EAC1010D
:100C5000418010BD1000002000127A001400002016
:100C60004FF0E02100220A61084B5B88584348613D
:100C70008A61086940F0010008610869C30701D072
:100C8000C003FAD50A618A61704700001400002091
:100C90004FF0E02100220A61084B1B78584348615D
:100CA0008A61086940F0010008610869C30701D042
:100CB000C003FAD50A618A61704700001400002061
:100CC00070470000F8B500250446009590F8240010
:100CD000012808D0012084F824002046FFF71CFEDC
:100CE000060002D04BE00220F8BDA06A20F4885034
:100CF00040F00200A062022001F032F822490968A7
:100D0000B1FBF0F0400000E0401E00900028FBD155
:100D10002046FFF727FE2068816841F008018160C6
:100D200000F05EFC074604E000F05AFCC01B0A28F5
:100D300011D8206880680007F6D42068816841F0E7
:100D40000401816000F04CFC07460EE000F048FC16
:100D5000C01B0A2809D9A06A20F0020040F0100048
:100D6000A06284F824500120F8BD20688068400704
:100D7000ECD4A06A20F0020040F00100A06284F8E8
:100D800024503046F8BD00001000002070470000DD
:100D9000F8B50024009490F824202546012A12D0AA
:100DA000012280F824204A681F23072A0DD20668F2
:100DB000776B521E02EB820293409F430B68934075
:100DC0001F43776319E00220F8BD06680D2A0AD296
:100DD000376BD21F02EB820293409F430B68934014
:100DE0001F43376309E0F76A0D3A02EB8202934032
:100DF0009F430B6893401F43F7620A680723066806
:100E00000A2A0AD3F7680A3A02EB420293409F4348
:100E10008B6893401F43F76008E0376902EB42029A
:100E200093409F438B6893401F4337610A68102AA1
:100E300001D0112A20D1124B02689A4217D193682F
:100E40001B0219D4936843F40003936009681029C6
:100E500012D10C490C4A0968B1FBF2F101EB810196
:100E6000490000E0491E00910029FBD104E0816A9D
:100E700041F020018162012480F824502046F8BD11
:100E8000002401401000002040420F00704710B5C0
:100E9000044600684168890626D50168890723D57C
:100EA000A16AC90603D4A16A41F40071A1628168F4
:100EB000C1F34241072910D1217B71B9416821F06A
:100EC00020014160A06A20F48070A062A06AC00482
:100ED00003D4A06A40F00100A0622046FFF7D6FFCD
:100EE00021686FF0120008602068416809062ED55D
:100EF000016849072BD5A16AC90603D4A16A41F448
:100F00000051A1628168C1F30231072909D041680B
:100F1000490515D48168C1F34241072910D1217BCD
:100F200071B9416821F080014160A06A20F48050CD
:100F3000A062A06AC00503D4A06A40F00100A062CC
:100F40002046FFF723FF21686FF00C00086020683F
:100F5000416849060DD50068C0070AD0A06A40F470
:100F60008030A062204600F093F821686FF0010005
:100F7000086010BD2DE9F0414FF0000704003D4628
:100F80007ED0A06A002628B9E66284F82460204654
:100F900000F080F82046FFF7BFFCA16AC90600D424
:100FA00020B1A06A40F01000A06269E0A16A21F4BB
:100FB000885141F00201A1626268E169237B0A4322
:100FC00047EA43010A43A1684FF48077B94209D048
:100FD000012907D05FF0000194F814C0BCF1010FA3
:100FE00002D00AE03946F7E7F3B1A36A43F02003E1
:100FF000A362E36A43F00103E3622368D3F804C009
:101000002CF4694C4CEA010CC3F804C021688B68CD
:10101000DFF870C003EA0C0313438B60A168B94288
:101020000BD0012909D00CE0DFF85CC0A3690CEB00
:1010300043330B4343F40061DFE7218A0D05A5F537
:1010400080152168CB6A23F470032B43CB6221689F
:1010500089680E4B1940914208D1E662A16A21F0DD
:10106000020141F00101A162BDE8F081A06A20F017
:10107000020040F01000A062E06A40F00100E0626F
:101080000120F1E7FDF7E1FF00E0FFFFFE0E1FFF8B
:101090007047000070B586B00025064600950195A2
:1010A0000295039500681E49884236D11D4988691A
:1010B00040F400708861886900F4007004908869C9
:1010C00040F0040088618869694600F004000490DB
:1010D0000720009003200190134800F08BF9144C76
:1010E0001248C4E900058020C4E902508000206154
:1010F000800060612020C4E90605204600F014F954
:1011000008B1FFF7DDFD346200221146122066624D
:1011100000F0F4FD122000F0E3FD06B070BD000009
:101120000024014000100240000801400800024075
:10113000D003002010B590F821100024022903D01C
:101140000421816301243DE001680A6822F00E0257
:101150000A6001680A6822F001020A601A4A0168FE
:10116000914201D1012121E0174A1432914201D16B
:1011700010211BE0144A2832914201D1891515E053
:10118000114A3C32914201D189140FE00E4A50328B
:10119000914202D14FF4803108E00B4A643291420F
:1011A00002D14FF4801101E04FF08071064A083AF5
:1011B0005160012180F82110002180F82010416B3E
:1011C00001B18847204610BD0800024090F8210078
:1011D000704700002DE9F05FC16B0C6801680B6877
:1011E000D0F840C0042202FA0CF2494DDFF824A1E5
:1011F000494E4A4FDFF828B1DFF828E122422CD0CF
:101200005A072AD50A68920603D40A6822F0040213
:101210000A600168A94201D1042219E0514501D1B7
:10122000402215E0B14202D14FF4806210E0B94291
:1012300002D14FF480420BE0594502D14FF4802295
:1012400006E0714502D14FF4800201E04FF0806268
:101250002F4908394A60C16A3BE04FF0020808FA9A
:101260000CF818EA040F4FF000094FF0010235D0D6
:101270005FEA837832D50B689B0605D40B6823F0B0
:101280000A030B6080F821200168A94201D10222E3
:1012900019E0514501D1202215E0B14202D14FF4AD
:1012A000007210E0B94202D14FF400520BE05945F0
:1012B00002D14FF4003206E0714502D14FF4001222
:1012C00001E04FF00072124908394A6080F820901E
:1012D000816A00291AD0BDE8F05F0847082505FAA1
:1012E0000CF5254212D01B0710D50B6823F00E0316
:1012F0000B6090F84010C36B02FA01F159608263F1
:1013000080F8212080F82090016BE2E7BDE8F09F93
:10131000080002401C00024030000240440002402D
:10132000580002406C00024030B528B308C8134989
:1013300014221944B1FBF2F18900C16310498163A1
:10134000022141771A6843F6F0718A43D0E900140C
:101350002143D0E902452C432143046921434469D8
:101360002143846921431143196000214163012213
:1013700042770177084630BD012030BDF8FFFDBF40
:101380000000024070B5044690F8200000250128B6
:101390000CD0012084F8200094F821600020012E58
:1013A00006D084F820000225284670BD022070BDBA
:1013B000022684F82160A0632068066826F00106F2
:1013C00006602046FFF71AFCE06A002820680168E2
:1013D00002D041F00E0106E021F004010160206816
:1013E000016841F00A0101602068016841F00101D3
:1013F0000160D9E72DE9F84FDFF8B891002409F131
:10140000040A0AF1040B23460F270BF1040EC9E06E
:101410000125A5402A40AA427DD1674ED1F804C0DB
:10142000ACEB0608B44532D014DCBCF1030F3AD063
:1014300009DCBCF1000F2AD0BCF1010F1CD0BCF1BB
:10144000020F31D11DE0BCF1110F17D0BCF1120F0A
:101450002AD119E0B8F5881F19D006DCB8F5803F0D
:1014600015D0B8F5801F1FD111E0B8F5001F0ED0C0
:10147000B8F5041F18D10AE0CB6815E0CB681B1D36
:1014800012E0CB6808330FE0CB680C330CE08B68BC
:101490002BB1012B4FF0080303D0456104E0042376
:1014A00002E0056100E00023FF2A01D8064601E0C2
:1014B00000F104064FEA840501D9A5F12005D6F80C
:1014C000008007FA05FC28EA0C0803FA05F548EA4B
:1014D0000508C6F800804D68ED0062D5374DAE694D
:1014E00046F00106AE61AD6924F0030605F0010582
:1014F0000095334D06EB050CDCF80850A607360FB7
:1015000007FA06F825EA0805DFF8B880404503D158
:101510004FF0000817E044E0DFF8AC80404502D10E
:101520004FF001080FE0DFF8A480404502D14FF0F2
:10153000020808E0DFF89880404502D14FF0030828
:1015400001E04FF0040808FA06F848EA0508CCF86C
:1015500008804D68D9F80060ED034D4601D516436B
:1015600000E096432E604D68DAF80060AD03554602
:1015700001D5164300E096432E604D68DBF800600D
:10158000ED025D4601D5164300E096432E604D689E
:10159000DEF80060AD02754601D5164300E09643C3
:1015A0002E60641C0D682A46E5407FF431AFBDE82B
:1015B000F88F0000000401400000111000100240EC
:1015C0000000014000080140000C014000100140F3
:1015D000001401400AB1016170470904FBE70000F3
:1015E0000148806870470000040000207047704781
:1015F0002DE9F04104460068416946680025CF4363
:10160000F9050BD4F143C90508D46FF480710125A5
:1016100041612068016841F400410160B80508D4C7
:10162000F043C00505D421686FF4007045F0020551
:101630004861780527D4F043C00524D494F83E309F
:10164000628D94F83D00216B202B08D13AB92128F6
:1016500010D029280ED0282801D121290AD02168AC
:101660006FF48060486194F83E0045F0040510284E
:1016700004D008E0204601F039FE04E0206801684B
:1016800041F400710160380508D4F043C00505D469
:1016900021686FF4006045F008054861002D07D00F
:1016A000206C284320642046BDE8F04101F0B8BA20
:1016B000BDE8F0812DE9F041026800245168C56A57
:1016C00090F83E3090F83D60102B1CD0402B1AD083
:1016D000036C002B7ED053694FF02805DB439F0736
:1016E00079D4CF43BF0576D4016C01B1946990F8E9
:1016F0003D3000219D430B467FD0C91E516180F8CB
:101700003C30BDE8F081946953694FF42A07DB430C
:101710005FEAC37C4FF02A4604D0BD42F1D0B54207
:10172000EFD010E0CD43AD050DD4C16AB94201D16F
:10173000012103E0C16AB14201D10821C162BDE8C3
:10174000F04101F08BBD1D0716D4CD43AD0513D478
:10175000416CC9B21161416B11B9826B002AD0D0C2
:10176000896A19B9816B896A0029CAD00068416801
:1017700041F400614160C4E79D0706D4CD43AD0547
:1017800003D4BDE8F04101F0BDBCE44352686407F6
:101790004FEA025215D4002AB3DB1A0608D4CA4312
:1017A000520505D45A0705D5BDE8F04101F028BC23
:1017B0005A07A6D4C9438905A3D4BDE8F04101F076
:1017C000DDBB002A9DDB5A060CD4CA43520509D45E
:1017D0005A0702E00FE023E00FE005D5BDE8F04135
:1017E00001F03EBB5A078CD4C943890589D4BDE8B2
:1017F000F04101F0CCBA94696DE7556825F4806535
:101800005560E243540700D50121120601D58289B3
:1018100000E0028B80F83C3092B2FFF7E8FE70E700
:10182000DC0606D4CC43A40503D4BDE8F04101F0A6
:101830009FBD212E27D0292E25D05C0655D4CC4320
:10184000640552D45B0752D590F83D10438D002BB0
:1018500091D01269436A1A70426A521C4262428DE8
:10186000521E4285428D002A85D12A29D7D101688E
:101870004A6822F480624A602221016380F83D5068
:1018800000F0DAF93DE71C0623D4CC43640520D4EC
:101890005B0720D590F83D10438D002BBFD0436AE5
:1018A0001B781361426A521C4262428D521E42856D
:1018B000428D002AB3D12929B1D101684A6822F4A6
:1018C00080624A602121016380F83D5000F0B5F943
:1018D00017E75B07A3D4C9438905A0D4418D00292C
:1018E0009DD0416A097811610AE05B0797D4C9432A
:1018F000890594D4418D002991D01169426A1170F3
:10190000416A491C4162418D491E4185F9E6704793
:1019100070B504001BD094F83D00002520B984F870
:101920003C50204600F04AF9242084F83D0020680D
:10193000016821F00101016000F022FB4D4A61685D
:10194000914201D84C4900E04C49884201D2012023
:1019500070BD4B492368B0FBF1F15E6826F03F068D
:101960000E435E606368934206D94FF49673594301
:101970004FF47A73B1FBF3F12368491C1E6A26F019
:101980003F06314319626168914210D84900401EF8
:10199000B0FBF1F2521CC2F30B02042A01D2042064
:1019A00022E0B0FBF1F0401CC0F30B001CE0A36888
:1019B000F3B301EBC10202EB0116421EB2FBF6F2D9
:1019C000521C42F48042120549D093B301EBC1028C
:1019D00002EB0111401EB0FBF1F0401CC0F30B0004
:1019E00040F4804040F400402168CA694CF6FF731F
:1019F0009A431043C861D4E90701084321680A6883
:101A000022F0C00210430860D4E9030101432068BA
:101A1000826848F2FF339A4311438160D4E905019B
:101A200008432168CA6822F0FF021043C86001E041
:101A30000EE016E02068016841F0010101602564B4
:101A4000202084F83D00256384F83E50002070BDBE
:101A500001EB4106421EB2FBF6F2521CB3E7012035
:101A6000C2E701EB4101401EB0FBF1F0401CC0F3A6
:101A70000B00B7E7A086010080841E0000093D002E
:101A800040420F0070477047704700002DE9F84F43
:101A90001F4690468A460446DDF82890FFF7A0FDD1
:101AA000054694F83D0020287FD1192301224049A2
:101AB0002046009501F030FD002876D194F83C00D6
:101AC000012872D0012084F83C0020680168C90711
:101AD00003D1016841F0010101602068016821F42F
:101AE00000610160212084F83D00102084F83E0050
:101AF00000262664C4F824806785608D20852D48E3
:101B0000E0622B464A465146204601F0F3F990B96F
:101B1000206841698069009036E02A46494620469F
:101B200001F079FD50B1206C042804D120680168CF
:101B300041F4007101600120BDE8F88F606A2168FE
:101B400000780861606A401C6062618D491E618591
:101B5000218D491E89B2218522685369DB435B07C9
:101B60000BD451B100781061606A401C6062608DD6
:101B7000401E6085208D401E20852A46494620460D
:101B800001F0A4FC0028CED1208D0028C5D154F846
:101B90003D0B016841F400710160202004F81E092A
:101BA000E67766770020C7E7FFE70220C4E700007A
:101BB000020010000000FFFF7047704710B586B0AC
:101BC0000021009101910291039100681749884218
:101BD0002AD1174CA06940F00800A061A0696946AD
:101BE00000F008000490C020009012200190032013
:101BF00003901048FFF7FEFBE06940F40010E0613D
:101C0000E069002200F40010049011461F2000F04B
:101C100075F81F2000F064F800221146202000F023
:101C20006DF8202000F05CF806B010BD00540040B4
:101C300000100240000C0140704770470248816864
:101C400002781144816070470400002010B5032021
:101C500000F074F8002000F005F800F023F80020F0
:101C600010BD000070B50D4D04464FF47A71287810
:101C7000B1FBF0F00A490968B1FBF0F000F0DDFCBF
:101C800048B9102C07D200222146501E00F036F829
:101C900000206C6070BD012070BD000004000020B9
:101CA000100000200C4808B5816941F001018161F4
:101CB000816901F001010091C16941F08051C16168
:101CC000C06900F0805000900448416821F0E06154
:101CD00041F00071416008BD001002400000014069
:101CE000002809DB00F01F0201219140400980001B
:101CF00000F1E020C0F8001170470000F0B40E4B76
:101D00001B680C46C3F30223C3F10705042D00D959
:101D10000425191D072901D2002300E0DB1E01263E
:101D200006FA05F1491E214099409E40761E164054
:101D30003143F0BC02F0FEBC0CED00E0064900F0BF
:101D4000070208684FF6FF03184040EA0220034AE2
:101D500010430860704700000CED00E00000FA0539
:101D600010B501460020144C01290BD0022908D1DE
:101D700000F016F96168C1F38131491C4900B0FBDC
:101D8000F1F010BD226AC2F30121012903D19207AB
:101D900001D5C80310BD022905D1626A920702D598
:101DA00049F6404010BD0329FCD121688903F9D5CB
:101DB0004FF2244010BD0000001002402DE9F8430E
:101DC00005460078314CC00754D0E0690026C000B9
:101DD00008D4E06940F08050E061E069012600F03D
:101DE000805000902A480168C90512D401688046D5
:101DF00041F480710160FFF7F3FB074605E000BF87
:101E0000FFF7EEFBC01B642823D8D8F80000C005FC
:101E1000F6D5206A10F4407021D0A98801F44071F1
:101E200081421CD0206A1B49012220F440700A60C4
:101E300000220A602062C00711D0FFF7D1FB0746DD
:101E400041F2883808E000BFFFF7CAFBC11B4145DB
:101E500002D90320BDE8F883206A8007F4D5206A00
:101E6000696820F44070084320621EB1E06920F0E8
:101E70008050E0612878800705D56068A96820F463
:101E80004040084360600020E4E70000001002408A
:101E900000700040400442422DE9F041050027D087
:101EA0002868334C810712D5400703D5606840F499
:101EB000E06060602878000703D5606840F46050F7
:101EC00060606068A96820F0F000084360602878CE
:101ED000C00729D06868012804D02168022804D0EE
:101EE000890703E02168890300E08901002902DBFA
:101EF0000120BDE8F081616821F0030101436160C8
:101F0000FFF76EFB064641F2883706E0FFF768FBF5
:101F1000801BB84201D90320EBE76068696800F0D4
:101F20000C00B0EB810FF1D12878400705D560682F
:101F3000E96820F4E060084360602878000706D56F
:101F40006068296920F4605040EAC100606000F0D8
:101F500037F86168074AC1F30311515CC84006496C
:101F6000086006480068FFF77DFE0020C1E700001A
:101F70000010024024530008100000200800002038
:101F80000448054900684968044AC1F30221515CCC
:101F9000C840704710000020001002403453000871
:101FA0000448054900684968044AC1F3C221515CEC
:101FB000C840704710000020001002403453000851
:101FC00013A188B00FC98DE80F0015A10DF1100CF9
:101FD0000FC98CE80F00164A5168164801F00C032F
:101FE000042B10D0082B0ED1C1F38343C9031DF875
:101FF00003000AD5D16A04AA01F00F01515C0D4A11
:102000005043B0FBF1F008B070470B494843FAE782
:1020100002030405060708090A0B0C0D0E0F101029
:102020000102030405060708090A0B0C0D0E0F1028
:102030000010024000127A0000093D002DE9F84F1F
:10204000040070D02078C04DC00749D06868C0F344
:102050008100012807D06868C0F38100022809D1F7
:102060006868C00306D52868800339D560680028F1
:10207000E7D035E06068B0F5803F0BD010B1B0F527
:10208000A02F11D0286820F480302860286820F420
:10209000802002E0286840F480302860606890B1B9
:1020A000FFF79EFA06460AE0286840F48020286080
:1020B000F0E700BFFFF794FA801B642873D8286804
:1020C0008003F7D50CE0FFF78BFA064605E000BF6A
:1020D000FFF786FA801B6428F0D828688003F7D4BD
:1020E00020789A4E80074FF001094FF0000839D54B
:1020F000686810F00C0F07D06868C0F381000228F0
:1021000009D16868C00306D42868800714D52069FF
:10211000012808D110E02069B0B1C6F80090FFF79F
:102120005FFA074605E00AE1FFF75AFAC01B0228EA
:10213000C4D828688007F7D52868616920F0F800BE
:1021400040EAC10028600DE0C6F80080FFF748FAB9
:10215000074604E0FFF744FAC01B022823D828688A
:102160008007F7D4207800072CD57948A169D9B128
:10217000C0F80090FFF734FA074604E0FFF730FAA2
:10218000C01B02280FD8686A8007F7D571484FF442
:10219000FA510068B0FBF1F0009000BF0098411EBA
:1021A0000091FAD20EE080E0C0F80080FFF718FA44
:1021B000074604E0FFF714FAC01B022875D8686AC6
:1021C0008007F7D42078400760D5E8690027C00071
:1021D00008D4E86940F08050E861E869012700F020
:1021E000805000905C480168C90513D4016883469B
:1021F00041F480710160FFF7F3F9824606E000BF09
:10220000FFF7EEF9A0EB0A0064284ED8DBF80000D7
:10221000C005F5D5E06801280AD008B1052813D01B
:10222000286A20F001002862286A20F0040002E0F9
:10223000286A40F001002862E06841F2883B98B1CA
:10224000FFF7CEF982460BE0286A40F004002862CE
:10225000EEE700BFFFF7C4F9A0EB0A0159455AD8D1
:10226000286A8007F6D50CE0FFF7BAF9824605E048
:10227000FFF7B6F9A0EB0A0159454CD8286A800748
:10228000F6D41FB1E86920F08050E861E06988B3B6
:102290006968C1F38101022944D00228C6F8608030
:1022A00004D0FFF79DF9044638E034E0FFF798F9D1
:1022B000074604E0FFF794F9C01B02282BD82868D2
:1022C0008001F7D4206AB0F5803F05D1E86AA168A3
:1022D00020F00F000843E862D4E908010843696868
:1022E00021F4741108436860C6F86090FFF778F92C
:1022F000044606E025E000BFFFF772F9001B022844
:1023000009D828688001F7D51BE000BFFFF768F9FE
:10231000001B022802D90320BDE8F88F286880013D
:10232000F4D40EE00128F7D06868226A00F4803106
:10233000914204D1616A00F47010884201D00120FA
:10234000EAE70020E8E700000010024000004242F7
:1023500080044242100000200070004070B504006C
:1023600005D00025A56294F8510010B106E00120C7
:1023700070BD84F85050204600F02AF8022084F8FE
:1023800051002068016821F040010160D4E9010199
:102390000843D4E903121143084361690843218BC0
:1023A00001F400710843E1690843216A0843A16A06
:1023B000084321680860A069042101EA10402168EF
:1023C00048606565012084F85100002070BD000060
:1023D00030B585B000240094019402940394006801
:1023E0001449884223D11448816941F480518161A4
:1023F000816901F480510491816941F00401816196
:1024000080690E4D00F004000490A020009002208E
:1024100001900320039069462846FEF7EBFF402019
:10242000CDE90004694628460294FEF7E3FF05B0B3
:1024300030BD0000003001400010024000080140A3
:102440002DE9F84F044690F8500000270A9E1D46DB
:1024500092468B464FF0010901280ED0012084F8E6
:102460005000FFF7BDF8804694F8510061680128DC
:102470000CD0B1F5827F07D102E00220BDE8F88FD1
:10248000A16809B9042801D00227C2E0BBF1000FFE
:1024900027D0BAF1000F24D01DB394F851000428BE
:1024A00002D0052084F8510000206065C4F838A0EF
:1024B000E587A587C4F830B0E586A586206460640A
:1024C00020680168490603D4016841F040010160B9
:1024D000E068B0F5006F606805D0E8B3012D46D024
:1024E0007FE0012795E008B1012D39D1206B2168EB
:1024F0000088C860206B801C2063E08E401EE08650
:102500002EE02068816889070FD5E18E69B1B9F1A5
:10251000010F0AD1216B0988C160206B801C2063E8
:10252000E08E401EE0864FF0000920688168C907F0
:102530000CD0E18F51B1C068A16B0880A06B801CEA
:10254000A063E08F401EE0874FF00109FFF748F8D5
:10255000A0EB0800B04200E009E001D3701C50D1AC
:10256000E08E0028CDD1E08F0028CAD13FE0206B5B
:10257000216800780873206B401C2063E08E401EA9
:10258000E0862EE02068816889070FD5E18E69B169
:10259000B9F1010F0AD1216B09780173206B401C3E
:1025A0002063E08E401EE0864FF0000920688168BD
:1025B000C9070CD0E18F51B1C068A16B0870A06B46
:1025C000401CA063E08F401EE0874FF00109FFF739
:1025D00007F8A0EB0800B04202D3701C01D010E055
:1025E0007EB1E08E0028CDD1E08F0028CAD14246CE
:1025F0003146204601F0EEFB28B10127202060651E
:1026000007E0032705E0A06818B92068C168806862
:102610000090012084F85100002084F850003846D2
:102620002CE74FF0E0210428086903D020F00400D3
:102630000861704740F00400FAE710B5401EB0F1A1
:10264000807F01D3012010BD4FF0E02460610F2195
:10265000601702F06FF80020A061072020610020C1
:1026600010BD70B590F83C20012A19D0012400F863
:102670003C4F0222427050F83C3C5A689D6822F060
:1026800070060A684968324325F0800529435A607C
:1026900050F83C2C9160447000210170084670BDD8
:1026A000022070BD2DE9F0410D46040003D094F8DE
:1026B0003D0018B108E00120BDE8F081002084F859
:1026C0003C00204600F03AF8022084F83D002068E3
:1026D000816844F2070291438160211D206801F066
:1026E000D1FD226890689169166A2B68AF6903432F
:1026F00040F20330814341EA0721A868EF690843AB
:102700004FF6FC418843E96840EA07200143286905
:102710002F6A000140EA0730084369686D6926F0B6
:10272000220646EA051529439360226890612068D5
:102730000162012084F83D000020BDE710B586B09D
:10274000002400940194029403940068B0F1804F37
:1027500030D11948C16941F00101C161C16901F07D
:1027600001010491816941F004018161816901F0F5
:1027700004010491816941F0080181618069694621
:1027800000F0080004904FF4004000900B48FEF762
:1027900031FE0820CDE90004694609480294FEF79D
:1027A00029FE0849486820F4407040F0E06040F499
:1027B0008070486006B010BD001002400008014063
:1027C000000C0140000001407047000070B5026835
:1027D00004461068D168536910F00F0F50D003F011
:1027E000010501F4907635435DD0C20705D0CA05D6
:1027F00003D5E26B42F00102E263420705D5DA0736
:1028000003D0E26B42F00202E263820705D5DA07E9
:1028100003D0E26B42F00402E263020705D5DA0757
:1028200003D0E26B42F00802E263E26B002A33D08D
:10283000800604D5880602D5204601F008FE2068EF
:102840004069E16BC0F38010090700D428B320462B
:1028500001F0E6FD2068416949061AD5416921F079
:1028600040014161606BA0B11B494163606BFEF7A1
:1028700061FC002810D0606B416BBDE870400847D8
:10288000830610D58B060ED52046BDE8704001F0BA
:10289000DEBD2046FFF798FF70BD2046FFF794FF8E
:1028A0000020E06370BD030606D50B0604D5204664
:1028B000BDE8704001F0AEBE4006F3D54806F1D544
:1028C000D168204621F04001D160202184F83910E0
:1028D00000F058F970BD00008143000870B5040095
:1028E00004D094F83900002510B106E0012070BD35
:1028F00084F83850204600F023F8242084F839006A
:102900002068C16821F40051C160204601F0EAFD51
:102910002068016921F4904101612068416921F03A
:102920002A0141612068C16841F40051C160E5633A
:10293000202084F8390084F83A00002070BD00009F
:10294000F0B585B0002406460094019402940394E7
:1029500000682D49884254D12C48816941F4804156
:102960008161816901F480410491816941F0040130
:1029700081618069264D00F0040004904FF40070DE
:102980000090022001900320039069462846FEF73C
:1029900031FD2815CDE90004694628460294FEF76A
:1029A00029FD1D4D1B48802701C5102091C51A48DF
:1029B00045F810496C61AC61EC61FEF7B5FC08B1FB
:1029C000FEF77EF935636E62134D124844351430BC
:1029D000C5E90004C5E9024720202C61C5E905408E
:1029E0002846EC61FEF7A0FC08B1FEF769F97563B3
:1029F0000022114625206E62FFF780F92520FFF79F
:102A00006FF905B0F0BD0000003801400010024031
:102A1000000801404400024040050020F8B504468B
:102A200090F83A0020283CD1C1B3BAB394F83800EA
:102A3000012836D0012084F83800A162A285002543
:102A4000E563222084F83A00636B17489862636B51
:102A50001648D862636B16481863606B134645636B
:102A60000846666B216802463046091DFEF78AFC5F
:102A7000206801684168009184F83850C16841F4C9
:102A80008071C1602068416941F0010141612068A5
:102A9000416941F0400141610020F8BDFFE701209C
:102AA000FBE70220F9E70000DB43000817440008B9
:102AB00091430008002301220149024800F005B8B3
:102AC000010000200005002070472DE9F84304466E
:102AD00090F839001F4616460D46202850D1A5B162
:102AE0009EB194F8380001284AD0012084F83800BB
:102AF0004FF00008C4F83C80212084F83900FEF72C
:102B00006FFDA6848146E68426E00120BDE8F883B7
:102B1000E08C401EE084A0684B46B0F5805F4FF02B
:102B200000024FF080012046009703D001F0A3FD82
:102B3000E8B90DE001F09FFDC8B928882168C0F30D
:102B400008004860206908B16D1C05E0AD1C03E079
:102B5000216815F8010B4860E08C0028D8D14B465D
:102B6000002240212046009701F085FD08B1032096
:102B7000CCE7202084F8390084F838800020C5E7AD
:102B80000220C3E77047FEE70148FEF731BD0000B1
:102B9000140400200148FEF78DBD0000140400203D
:102BA00010B5406A90F83D30426B00219162826B13
:102BB00091620268146824F4806414604185426B59
:102BC0005163826B51630268146824F0010414603D
:102BD00090F83D202024602A0BD0282232EA0303FB
:102BE0000FD080F83D4080F83E1000BFFEF78FFE0A
:102BF00010BD80F83D4080F83E100164FEF7F6FC01
:102C000010BD03681C6844F001041C6003681C6864
:102C100044F480641C60016380F83D20E6E7000016
:102C200070B5044690F83D0094F83E10102906D186
:102C3000222804D121680A6822F400620A6028214F
:102C400031EA00024FF000054FF0200626D021683F
:102C50004968090503D4602801D084F83D602563E4
:102C600084F83E5020684168090537D5416821F451
:102C700000614160606B384990F82120012A11D031
:102C80004163606BFEF756FA38B32068016821F0A3
:102C90000101016084F83D60606B1CE0256384F8ED
:102CA0003D10DFE7A06B4163A06BFEF743FAA0B1D4
:102CB00020684169C943490605D40069616A087002
:102CC000606A401C60622068016821F001010160B7
:102CD00084F83D60A06B416B884710E094F83D108C
:102CE000602923D04169C943490605D40069616A56
:102CF0000870606A401C60622046FEF708FE94F887
:102D00003D00216C490710D528280ED12068416864
:102D100021F4E06141601148E062256384F83D6080
:102D200084F83E502046FEF7ADFE70BD84F83D604D
:102D300025644169C943490605D40069616A087080
:102D4000606A401C60622068016821F00101016036
:102D50002046FEF74BFCD2E7A12B00080000FFFF46
:102D600001684A69D24352050FD46FF480624A6108
:102D7000002140F8301F202242738173026942F023
:102D8000040202610173012070470020704710B5F2
:102D9000C26A438D0168042B06D0438D032B08D0F3
:102DA000438D022B1DD012E04A6822F480624A60F3
:102DB0000CE04B6823F480634B60042A06D0022A9F
:102DC00004D001680A6822F480620A600168096917
:102DD000426A1170416A491C4162418D491E418518
:102DE00010BD012A30D0102A2ED0042A30D0022A59
:102DF0002ED00A6842F400720A6001680969426ACA
:102E00001170416A491C4162428D521E428502681E
:102E100012690A70416A491C4162418D491E41850F
:102E200001684A6822F440724A60202180F83D100F
:102E300090F83E200021402A80F83E100CD012214C
:102E40000163FEF720FE10BD0A6822F48062D3E71A
:102E50000A6842F48062CFE70163FEF7ADFE10BD61
:102E600010B590F83D10222914D1418D032912D9B3
:102E700001680969426A1170416A491C4162418DC9
:102E8000491E4185418D032904D10068416821F420
:102E90008061416010BDC26A022AFBD0012901D0C5
:102EA0000029F7D101680A6822F480620A6001688B
:102EB0004A6822F4E0624A6001680969426A117056
:102EC000416A491C4162418D491E4185202180F89B
:102ED0003D1090F83E200021402A80F83E1004D09A
:102EE00012210163FEF7CFFD10BD0163FEF764FE02
:102EF00010BD0000F8B50446C06A1E460D461746D0
:102F0000082807D0012805D010F5803F02D0206B9B
:102F1000122804D12068016841F4807101601346D1
:102F200000224FF001112046009600F0F5FA08BB90
:102F30002069B0F5804F0ED00620216800EAD51038
:102F400040F0F000086133463A460B49204600F055
:102F500017FB78B902E005F0FE0000E0E8B2216856
:102F60000861054933463A46891F204600F008FBB0
:102F7000002800D00120F8BD0800010010B5C26A89
:102F800090F83D1021290BD1418D51B1416A026861
:102F900009781161416A491C4162418D491E418590
:102FA00010BD20230021082A13D0202A11D012F5A9
:102FB000803F0ED00268546824F4E064546011220B
:102FC000026380F83E1080F83D3000BFFEF75CFDE4
:102FD00010BD0268546824F4E06454600268146808
:102FE00044F400741460016380F83D3090F83E2092
:102FF00080F83E10402AE9D1FEF7DFFD10BD000049
:1030000010B590F83D1090F83E30C26A048D64B15E
:10301000212903D0402B21D122291FD1418DA1B3D9
:1030200090F83E10402937D046E02129F2D12023E4
:103030000021082A13D0202A11D012F5803F0ED08B
:103040000268546824F4E06454601122026380F83A
:103050003E1080F83D3000BFFEF716FD10BD02683F
:10306000546824F4E06454600268146844F4007402
:103070001460016380F83D3090F83E2080F83E10E7
:10308000402AE9D1FEF799FD10BDFFE700684168CD
:1030900021F480614160F7E7016DC1B1016D012943
:1030A00022D0016D0229EFD190F83D10222923D0C2
:1030B00090F83D102129E7D1416A02680978116131
:1030C000416A491C4162418D491E4185DCE7C16C62
:1030D0000129816C02D0C1F3072107E00268C9B25F
:1030E0001161016D891C05E0816CC9B20268116132
:1030F000016D491C0165C7E70068016841F48071F2
:103100000160C1E778B590F83E50C26A046B90F850
:103110003D6000230168222E73D1066D0EB9402D4B
:103120006FD0056D1DB90569B5F5404F1BD0458DB4
:1031300095B3468D484D012E20D0448D022C4DD0A4
:103140000C6844F480640C6001684C68240579D5EF
:10315000AA4273D0012A71D0082A6FD0102A6DD0EC
:10316000202A6BD06EE04A698A6900920A6842F4AC
:1031700080720A60016D491C016578BDAA4214D1B4
:103180000A6822F480620A6001684A68120504D560
:103190000A6822F4806217E0FFE74A698A690092B0
:1031A0000A6842F400720A6050E0082A10D0202A0F
:1031B0000ED0122C0AD0042A03D0022A01D0102AE1
:1031C000E6D10A6842F480620A603BE0012ADFD05F
:1031D0000A6822F480620A600168DEE7042A11D0DE
:1031E000022A0FD0102A0DD00C6844F400640C6041
:1031F00001684C698C6900940C6824F480640C604C
:1032000008E025E00C6844F480640C6001684C69B7
:103210008969009101684C68240517D5AA4207D036
:10322000012A05D0082A03D0102A01D0202A0DD166
:103230004A6842F480524A6008E0FFE74A6842F474
:1032400080524A6001684A6989690091036578BDC6
:1032500048698869009078BD0000FFFF90F83E1033
:10326000402910D00169B1F5804F19D0016DB1B37B
:10327000016D012910D1416C5FF0F10201F4407140
:1032800042EAD11106E0016D0029416C05D0C9B2B6
:1032900041F0010100680161704701F0FE01F9E7AA
:1032A00090F83D102129416C07D0C9B241F00101CD
:1032B00002681161416B31B902E001F0FE01F7E7EC
:1032C000826B002AE8D0896A19B9816B896A002962
:1032D000E2D00068416841F4006141607047FFE757
:1032E000416CF02201F44071CAE700002DE9F04181
:1032F00090F83D40C26A002320261C4F01686FF4FD
:103300008065082A01D0202A01D1282C04D0212C44
:1033100016D04D61BDE8F081C7624A6822F4E062D0
:103320004A6001684D6101680A6822F480620A609F
:10333000036380F83D6080F83E30FEF7A3FBE9E7C9
:10334000C7622122026380F83D6080F83E304A68FF
:1033500022F4E0624A6001684D6101680A6822F463
:1033600080620A60FEF769FCD4E700000000FFFFFE
:10337000F8B590F83D6004460068416821F4E061CA
:1033800041602068002541690091016841F0010118
:1033900001602068016821F4806101602068416853
:1033A000090520D5474F222E48D02A2E46D0616BE2
:1033B000096849686185618D19B1216C41F004018A
:1033C0002164416821F400614160606BFDF7FEFEFD
:1033D000012808D0606B4763606BFDF7ABFE10B14E
:1033E000606B416B8847608D08B320684169C943B1
:1033F000490708D40069616A0870606A401C60620D
:10340000608D401E608520684169C943490608D423
:103410000069616A0870606A401C6062608D401ECD
:103420006085608D18B1206C40F004002064206C31
:1034300000B32046BDE8F840FFF7F2BBA16B096876
:1034400049686185618D19B1216C41F004012164E5
:10345000416821F400614160A06BFDF7B7FE0128CF
:10346000C1D0A06B4763A06BFDF764FE0028BAD003
:10347000A06BB6E72A2E06D12563282084F83D00EC
:103480002046FEF7D9FB94F83D10202028290DD0C6
:10349000216B222901D0222E07D1256384F83D001B
:1034A00084F83E502046FEF7C7FBF8BD0649E162AE
:1034B000256384F83D0084F83E502046FEF7E2FA8A
:1034C000F8BD0000A12B00080000FFFF70B51646F4
:1034D0000D4604460DE02046FFF742FC08B10120EE
:1034E00070BD681C05D0FEF77BF8801BA84207D88A
:1034F00035B120684069C0434007ECD4002070BD5E
:10350000002044F8300F20216173A073216941F03D
:10351000200121612073E2E72DE9F0471E46904625
:103520000D460446C1F30747DDF8209008E0701C03
:1035300006D0FEF755F8A0EB0900B0420FD876B1DF
:103540002068012F18D0806925EA00000004000CD3
:1035500014D000214145EAD00020BDE8F0870020CA
:1035600044F8300F20216173A073216941F02001DC
:10357000216120730120F0E74069E5E70121E9E7D7
:103580002DE9F0479A4691460E46044600254FF035
:103590002008C1F3074725E020684069C043400583
:1035A00014D42068016841F40071016021686FF44F
:1035B00080604861256384F83D8084F83E50206C2B
:1035C00040F00400206484F83C501FE0B9F1FF3F54
:1035D00008D0FEF705F8A0EB0A0149450CD8B9F16F
:1035E000000F09D02068012F13D0806926EA00005F
:1035F0000004000C0BD0CFE744F8305F84F80D8056
:10360000A573206940F02000206125730120BDE8EA
:10361000F0874069EAE770B516460D4604460DE0AE
:103620002046FFF79DFB08B1012070BD681C05D046
:10363000FDF7D6FF801BA84207D835B12068406946
:10364000C0430006ECD4002070BD002044F8300FC9
:1036500020216173A073216941F020012161207351
:10366000E2E70000FEB500241B48009401941949CC
:103670000294016089158160012505730475032694
:1036800006614FF460214460C161FDF773FC08B12D
:10369000FDF716FB05200094CDE9015069460E4860
:1036A000FDF776FB08B1FDF70BFB0224CDE90054D2
:1036B00069460948FDF76CFB08B1FDF701FBCDE950
:1036C000004669460448FDF763FB002801D0FDF77A
:1036D000F7FAFEBD00240140A0030020114808B500
:1036E000416941F0010141614069002200F001009F
:1036F000009011460B20FEF701FB0B20FEF7F0FABD
:10370000002211460E20FEF7F9FA0E20FEF7E8FA25
:10371000002211460F20FEF7F1FABDE808400F2005
:10372000FEF7DEBA001002402DE9F04385B0002418
:103730003D480094019402940394816941F0100182
:103740008161816901F010010491816941F02001DA
:103750008161816901F020010491816941F00401D6
:103760008161816901F004010491816941F00801DE
:10377000816180692D4F00F008004FF400450490EE
:10378000002229463846FDF725FFDFF8A4800022F5
:1037900003214046FDF71EFFDFF898900022182114
:1037A0004846FDF717FFA810CDE9000469463846E2
:1037B0000294FDF71FFE0095022601250396CDE930
:1037C000015469463846FDF715FE0320CDE9000592
:1037D000CDE9024669464046FDF70CFE1820CDE9CA
:1037E0000005CDE9024669464846FDF703FE40F66E
:1037F0001100CDE9000469460F480294FDF7FAFD77
:103800004FF4C050CDE90004694648460294FDF7E4
:10381000F1FD0A48416841F0E06141F40041416036
:1038200005B0BDE8F0830000001002400010014028
:103830000014014000080140000C0140000001405C
:103840000D4810B50B4901600C49416000214FF44F
:1038500080428160C0E9031241618161C1610162FE
:10386000FEF756F8002803D0BDE81040FDF728BA4F
:1038700010BD00000054004014040020A086010088
:10388000104810B50E4901604FF48271416000216B
:103890008160C1604FF400720161C0E9051210221D
:1038A000C0E90721416281620A21C162FEF756FD2B
:1038B000002803D0BDE81040FDF702BA10BD00009B
:1038C000003001406804002010B58CB02421684607
:1038D000FCF759FC0024164809944FF080410A94E3
:1038E00001600321C0E901144FF6FF72C0E903240F
:1038F000846100910120CDE901400F21CDE9034110
:10390000CDE90540CDE9074169460948FEF7CAFE01
:1039100008B1FDF7D5F9099409A905480A94FEF7FD
:10392000A0FE002801D0FDF7CBF90CB010BD0000BF
:10393000C00400200C4810B50A4901604FF4E13181
:103940004160002181600C22C160C0E904128161E4
:10395000C161FEF7C3FF002803D0BDE81040FDF7AA
:10396000AFB910BD0038014000050020FEE77047E8
:103970001CB512A10522D1E90001CDE9000169467B
:10398000302000F0F9F805226946102000F08CF88C
:10399000002069460A5CA52A03D1401CC0B2052854
:1039A000F8D3052804D007A000F0A0FE01201CBD1C
:1039B0000DA000F09BFE00201CBD0000A5A5A5A544
:1039C000A50000004E524632344C3031CEDECFDFFF
:1039D000C4A3BFE9B3F5CABCBBAFCAA7B0DC2065BE
:1039E00072726F72200D0A004E524632344C3031E2
:1039F000CEDECFDFC4A3BFE9B3F5CABCBBAFB3C94A
:103A0000B9A6204F4B200D0A000000000E4810B54B
:103A10000021C0F88C110121C0F89011FFF7A8FF18
:103A20000A48D0F82C1151B1D0F82C0101280AD144
:103A300000F074FC06A0BDE8104000F057BE00F096
:103A40009DF90EA0F7E710BD000021420080214241
:103A5000BFD8D6C6C6F7202D3E20D4A4BCC6BDAB69
:103A60004E524632344C3031B3F5CABCBBAFCEAA4D
:103A7000B7A2CBCDD7B4CCAC0D0A0000D2A3BFD82F
:103A8000202D3E20D4A4BCC6BDAB4E524632344C91
:103A90003031B3F5CABCBBAFCEAABDD3CAD5D7B4FB
:103AA000CCAC0D0A000000002DE9F0410E4E884616
:103AB00000211546C6F8901101460C4800F0E4F9C3
:103AC0000746002407E0FF21084800F0DDF908F868
:103AD0000400641CE4B2AC42F5D30120C6F89001A6
:103AE0003846BDE8F0810000000021426804002053
:103AF00010B5084C0021C4F890110146064804F5A1
:103B0000C87400F0C1F9FF21034800F0BDF901219C
:103B1000216010BD000021426804002010B5144C43
:103B20000021C4F88C1101462022A02004F5C6749F
:103B300000F022F8012020600E4800BFD0F80011EC
:103B40000029FBD10720FFF7D3FF044601462720B9
:103B500000F036F8E00605D5FF21E12000F030F84E
:103B6000102010BDA00601D5202010BDFF2010BDE3
:103B700000002142008021422DE9F0410E4F0D4608
:103B800000211646C7F8901101460C4800F07CF958
:103B90008046002407E000BF15F8011B074800F02D
:103BA00073F9641CE4B2B442F6D30120C7F8900163
:103BB0004046BDE8F081000000002142680400207A
:103BC00070B50A4C0E460021C4F890110146084811
:103BD00004F5C87400F058F905463146044800F071
:103BE00053F901202060284670BD000000002142EA
:103BF000680400202DE9F84100261746884605464E
:103C0000114C00961AE001060BD58DF8000068787B
:103C10008DF801003A4641466846AD1C00F018F8A0
:103C200005E03B46424609496D1C00F0F3F9208847
:103C3000702803D36088801C608026802878002844
:103C4000E1D1BDE8F881000018000020200000202C
:103C50002DE9F74FDFF818A191468B46002600BFEB
:103C6000C6EBC60000EB80014248009A435C127824
:103C700093426FD101EB0008009898F8011040784A
:103C8000814267D15FF0000408EB0400B9F1010F35
:103C9000C77802D10CB180780743002527FA05F0D8
:103CA000C00709D0BAF80210BAF80000294420442D
:103CB00089B280B25A460BE0BBF1000F1BD0002244
:103CC000BAF80210BAF800002944204489B280B240
:103CD00000F0EAF86D1CADB2082DDFD3641CE4B22D
:103CE000102CD1D35FF0000508EB0500B9F1010FEE
:103CF000C77C02D004E00122E2E70DB1807C0743DB
:103D00005FF0000427FA04F0C0070BD0BAF80220D5
:103D100004F10801BAF800001144284489B280B2C5
:103D20005A460DE0BBF1000F1FD00022BAF8023056
:103D3000BAF8000004F108011944284489B280B29D
:103D400000F0B2F8641CA4B2082CDBD36D1CEDB2F9
:103D5000102DC9D3761CB6B2192E81D3BAF8000043
:103D60001030AAF80000BDE8FE8F0122DEE7000057
:103D700018000020280000207047000010B5134CE8
:103D80000020C4F88C01052211492A2004F5C674CC
:103D9000FFF7F2FE01212120FFF712FF012122206F
:103DA000FFF70EFF28212520FFF70AFF20213120F1
:103DB000FFF706FF0B212620FFF702FF0F2120202F
:103DC000FFF7FEFE0120206010BD00000000214230
:103DD0004153000838B50B4600920446002280216A
:103DE00000F008F8002804D0606D40F02000606505
:103DF000032038BD2DE9F0411D4617460E46044606
:103E0000DDF8188008E0681C06D0FDF7E9FBA0EBA0
:103E10000800A8420BD255B12068806836EA00003D
:103E200030D00020B842EED10020BDE8F0812068FB
:103E3000416821F0E00141606068B0F5827F0BD1FC
:103E4000A068B0F5004F02D0B0F5806F04D12068B3
:103E5000016821F040010160A06AB0F5005F09D15E
:103E60002068016821F4005101602068016841F474
:103E700000510160012084F85100002084F85000B6
:103E80000320D2E70120CDE73EB5FF248DF80810CE
:103E9000012301AA02A90094FEF7D2FA08B18DF815
:103EA00004409DF804003EBD70B5802813D240291F
:103EB00011D20B4B012401F007051E79AC40094BD0
:103EC000C90800EBC1100EB132B101E0012A03D0E4
:103ED000195CA143195470BD195C2143FAE7000035
:103EE00018000020C805002028B1FF224FF480618F
:103EF0000248FCF741B90022F8E70000C80500209D
:103F0000014A1080518070471800002010B54FF40E
:103F1000FA70FCF7A5FE0021AE2000F01FF9002189
:103F2000202000F01BF90021084600F017F90021BD
:103F3000B02000F013F90021C82000F00FF9002193
:103F4000084600F00BF90021102000F007F90021CD
:103F5000402000F003F90021812000F0FFF800214B
:103F6000084600F0FBF80021A12000F0F7F800213E
:103F7000A62000F0F3F80021A82000F0EFF80021BF
:103F80003F2000F0EBF80021A42000F0E7F800212A
:103F9000D32000F0E3F80021084600F0DFF800210C
:103FA000D52000F0DBF80021F02000F0D7F8002148
:103FB000D92000F0D3F80021222000F0CFF8002112
:103FC000DA2000F0CBF80021122000F0C7F8002121
:103FD000DB2000F0C3F80021202000F0BFF8002112
:103FE0008D2000F0BBF80021142000F0B7F800216C
:103FF000AF2000F0B3F80020FFF776FF00F090F854
:10400000034800210180418001214171084610BD13
:10401000180000202DE9FF4FDFF8D4A00E460978E4
:10402000BAF800000827014450468029408803D28E
:1040300071780144402905D30022AAF80020801C91
:10404000AAF80200B078C01D90FBF7F000F0FF0B5B
:1040500000203DE0002435E00098B178203841434D
:1040600008FB07102044716880B2039A11F8009091
:10407000012A05D120B11CB1401E085C40EA0909A3
:104080005FF00005BAF8022029FA05F008FB0721C5
:104090002944C00789B205D0BAF80000029A20442A
:1040A00080B207E0029A02B35FF00002BAF80000A3
:1040B000204480B2FFF7F8FE6D1CADB2BD42E1D3E3
:1040C000641CA4B23078A042C6D808F1010080B2C6
:1040D00080465845BED3BAF8001032781144AAF889
:1040E0000010009804B0BDE8F08F0122DEE7000068
:1040F00018000020F0B51D4616460F4604460AE09B
:104100002B4632463946FFF785FF2178884201D099
:10411000C8B2F0BD641C20780028F1D1C0B2F0BD57
:1041200070B50D4D002400BF04F1B000C0B20021F5
:1041300000F014F80021084600F010F800211020CB
:1041400000F00CF805EBC410802100F01DF8641C91
:10415000E4B2082CE8D370BDC80500201CB50022CD
:1041600001928DF804108DF80500012000900223C3
:1041700001AA78210348FDF789FC002800D001201E
:104180001CBD000014040020F8B506460C46481C6F
:1041900001F092F8054640202870002004E0315CD0
:1041A0002A18401C517080B2A042F8D30120641C30
:1041B0000090A3B22A4678210648FDF767FC002844
:1041C000284603D000F040FF0120F8BD00F03CFF7E
:1041D0000020F8BD140400207047FDF72FBD30B556
:1041E00093B028216846FBF7CEFF14210AA8FBF7FD
:1041F000CAFF0024022501200F940490009510208E
:1042000005900004CDE90840119410940795684684
:10421000FDF714FF0F200A90CDE90B540D940021F7
:104220000AA80E94FDF738FE0FA80F951194FDF71C
:10423000C5FD13B030BD00000E48016841F001011A
:10424000016041680C4A1140416001680B4A11400D
:104250000160016821F480210160416821F4FE01C0
:1042600041604FF41F0181600021C1620449C00315
:1042700008607047001002400000FFF8FFFFF6FEE4
:1042800008ED00E0F0B502681E4B1F4C1F4D4FF0CB
:10429000804E984205D0704503D0A04201D0A8427C
:1042A00003D122F070064A683243194E194FDFF8E5
:1042B00068C098420BD0704509D0A04207D0A842F0
:1042C00005D0B04203D0B84201D0604503D122F4FA
:1042D0004074CA6822434C6922F080022243026083
:1042E0008A68C2620A688262984205D0B04203D0EE
:1042F000B84201D0604501D10969016301214161E2
:10430000F0BD0000002C0140000400400008004007
:1043100000400140004401400048014010B5164CE7
:104320000020C4F88C0105221449302004F5C6741D
:10433000FFF722FC11490522491D2A20FFF71CFC2A
:1043400001212120FFF73CFC01212220FFF738FC4E
:104350001A212420FFF734FC28212520FFF730FC08
:104360000B212620FFF72CFC0E212020FFF728FC34
:104370000120206010BD0000000021423C530008D5
:1043800010B5406A0021C185C184FEF71DFA10BD39
:1043900070B5446A2068406994F83910C0F3C010C1
:1043A0000025212904D118B1E584204600F046F803
:1043B0002068406994F83A10C0F38010222904D193
:1043C00018B1E585204600F02BF8E06B40F01000B6
:1043D000E0632046FEF7F8F970BD10B50146406A6B
:1043E00009680968890613D40021C1850168CA6873
:1043F00022F48072CA6001684A6922F001024A61AF
:1044000001684A6922F040024A61202180F83A108E
:10441000FEF750FB10BD10B5406AFEF755FB10BD0E
:104420000168CA6822F49072CA6001684A6922F081
:1044300001024A61202180F83A1070470168CA6879
:1044400022F0C002CA60202180F83910704710B5F0
:1044500090F83A10222901D0022010BD8168B1F5F0
:10446000805F11D00169002901681FD0496801F0FF
:104470007F03816A4A1C82620B70C18D491E090448
:10448000090CC18518D02BE00269816A002A0268F4
:10449000526805D0D2B20A80816A491C8162ECE779
:1044A000C2F308020A80816A891CF7E74A68816AB8
:1044B0004B1C83620A70E0E70168CA6822F02002A0
:1044C000CA600168CA6822F48072CA6001684A69D9
:1044D00022F001024A61202180F83A10FEF7EAFA40
:1044E000002010BD2DE9F041044600680169E26832
:1044F00021F44051114301612169A068E269084338
:104500006169114322680843D16849F20C639943F9
:104510000143D16020684169A26921F440711143CF
:104520004161E16964253226B1F5004F38482168C0
:1045300004D081423DD1FDF733FD3CE0814202D100
:10454000FDF72EFD01E0FDF71BFD00EBC00101EBC7
:10455000001160686FF0180C4000B1FBF0F3B3FB82
:10456000F5F3B1FBF0F7B1FBF0F203FB0CF307EB53
:10457000830306EBC303B2FBF5F2B3FBF5F31201C1
:1045800003F0F80302EB4302B1FBF0F3B1FBF0F0F0
:10459000B0FBF5F000FB0CF003EB800006EBC00075
:1045A000B0FBF5F000F00700216810448860BDE81A
:1045B000F081FDF7E5FC00EBC00101EB0011606844
:1045C0006FF018078000B1FBF0F2B2FBF5F2B1FB1F
:1045D000F0F37A4303EB8202B1FBF0F306EB021235
:1045E000B2FBF5F2B3FBF5F302F0F00202EB0312BB
:1045F000B1FBF0F3B1FBF0F0B0FBF5F0784303EB67
:10460000800006EB0010B0FBF5F000F00F00CBE7E8
:104610000038014090F83910212901D0022070475C
:104620008168B1F5805F016A0BD04A1C02620268A2
:1046300009785160C18C491E0904090CC1840ED04F
:1046400017E009880268C1F3080151600169002977
:10465000016A02D0491C0162ECE7891CFBE7016892
:10466000CA6822F08002CA600068C16841F0400157
:10467000C160002070472DE9F041984617460E466C
:104680000446069D1DE0681C1BD02DB1FCF7A8FF59
:10469000A0EB0800A84214D92068C16821F4D071A9
:1046A000C1602068416921F001014161202084F846
:1046B000390084F83A00002084F838000320BDE86F
:1046C000F0812068006836EA000004D00020B8427B
:1046D000D9D00020F3E70120F9E700000148FEF7F8
:1046E00075B8000000050020FEE700000FB4054B80
:1046F00010B503A9044A029800F0FEF810BC5DF85A
:1047000014FB000031500008940300200FB4084B44
:1047100010B504A902AA039800F0EEF8044602A915
:10472000002000F080FC204610BC5DF814FB000067
:10473000275000080907090E002804DB00F1E020DB
:1047400080F80014704700F00F0000F1E02080F8BE
:10475000141D704702E008C8121F08C1002AFAD1D0
:1047600070477047002001E001C1121F002AFBD1F1
:10477000704700002DE9FF5F82B00021DDE90430C1
:10478000020DDDF840B0034318D044F61050A2F2F9
:10479000FF3242431514119801281FD0A5EB0B00DE
:1047A000401C5FEA000A4FF000064E4FDFF83891D8
:1047B000B046504615D5CAF1000413E01198012403
:1047C0004AA3012801D16FEA0B010298119AC0E9AE
:1047D0000031C0E9024206B0BDE8F09FCBF1000015
:1047E000DFE704460021404A491842EB0450CDE976
:1047F000001012E0E00707D032463B4640464946EB
:10480000FBF724FD8046894632463B461046194652
:10481000FBF71CFD06460F466410002CEAD1DDE9CB
:104820000401DDE90023BAF1000F06DAFBF70EFD03
:1048300042464B46FBF70AFD05E0FBF779FD424691
:104840004B46FBF775FD04460E460022284BFBF74E
:10485000E7FF03D84FF0FF30014607E00022254B69
:1048600020463146FBF71CFFFBF7C1FF102409E08F
:10487000002C0ADB0A220023FBF74DFE039B30329B
:104880001A55641E50EA0102F2D1641C039AC4F165
:1048900011031444119A012A03D0012208430DD1B7
:1048A0000AE0084304D000204FF0110B119072E78A
:1048B000A3EB0B056D1E0DE05B4504DD4FF0000220
:1048C00005F1010504E003DA4FF00002A5F101054E
:1048D000002AECD002981199C0E90231C0E90045E4
:1048E00079E70000000014400000F03F30000000B5
:1048F0000000F0430000E03F2DE9FF4F95B09B46DC
:104900008946064600250FE2252877D10024274650
:10491000F84A0121059400E0044316F8013F203BCA
:1049200001FA03F01042F7D130782A2811D06FF045
:104930002F033078A0F13002092A16D8059A44F0E6
:10494000020402EB820203EB42021044761C059043
:10495000EFE759F8042B0592002A03DA504244F499
:104960000054059044F00204761C30782E2816D1AD
:1049700016F8010F44F004042A280DD06FF02F021E
:104980003078A0F13003092B09D807EB870302EB3D
:104990004303C718761CF3E759F8047B761C30787C
:1049A0006C280FD006DC4C2817D068280DD06A2858
:1049B00014D104E0742810D07A280FD10DE044F40B
:1049C00000140AE044F4801401E044F440147278C6
:1049D000824202D104F58014761C761C3078662859
:1049E0000BD013DC582877D009DC002875D0452877
:1049F000F6D04628F4D047281AD19DE118E0632864
:104A000035D0642879D0652812D195E1702873D00B
:104A100008DC6728F1D069286FD06E280DD06F2888
:104A200006D1B5E073282CD0752875D0782874D0BD
:104A30005A46179990476D1C75E1C4F3025002283D
:104A400009D003280DD0D9F8001004280DD00D602E
:104A500009F1040967E1D9F80010EA17C1E9005229
:104A6000F6E7D9F800100D80F2E70D70F0E719F8BD
:104A7000041B8DF8001000208DF80100EA4601208B
:104A800003E059F804AB4FF0FF3061074FF000012D
:104A900002D40DE008F101018846B9420FDA8045E1
:104AA000F8DB1AF808100029F4D108E008F1010138
:104AB00088468142FADB1AF808100029F6D10598D9
:104AC0005B46A0EB080721463846179A00F094FA97
:104AD000284400EB080507E04DE029E10DE01AF855
:104AE000010B5A4617999047B8F10108F7D25B4677
:104AF00021463846179A13E142E00A220092C4F395
:104B000002524FF0000A022A08D059F804CB032AB7
:104B10004FEAEC710AD00DE029E02AE009F1070123
:104B200021F00702F2E802C1914609E00FFA8CFC7D
:104B30004FEAEC71042A03D14FFA8CFC4FEAEC7176
:104B4000002907DA0A460021DCF1000C61EB0201C2
:104B50002D2202E0220504D52B228DF8042001220B
:104B600003E0E20701D02022F7E7904659E00A214E
:104B700002E010220DE010214FF0000A00910BE03E
:104B800010224FF0000A44F004040827009203E0CA
:104B900008224FF0000A0092C4F30252022A05D004
:104BA00059F804CB0021032A08D009E009F10701D4
:104BB00021F00702F2E802C1914605E01FFA8CFCE1
:104BC000042A01D10CF0FF0C4FF00008220728D571
:104BD000702806D0009B83F0100353EA0A0305D027
:104BE0000EE040228DF80420012208E05CEA010278
:104BF00006D030228DF804208DF805000222904660
:104C0000009B83F0080353EA0A030AD15CEA01021D
:104C100001D1620705D530228DF804204FF001083C
:104C20007F1E582804D034A003900EA802900DE0F7
:104C300036A0F9E753466046009AFBF76CFC8446C1
:104C40000398825C0298401E029002705CEA0100A8
:104C5000F0D1029806A9081A00F1200A600702D5CF
:104C600024F4803400E00127574502DDA7EB0A0059
:104C700000E0002000EB0A01009005984144401A32
:104C80000590E00306D45B462146179A059800F08C
:104C9000B3F90544002706E001A85A46C05D1799FC
:104CA00090476D1C7F1C4745F6DBE0030CD55B4647
:104CB0002146179A059800F09FF9054404E030203A
:104CC0005A46179990476D1C0099481E009000297C
:104CD000F5DC08E0029802995A460078491C0291D6
:104CE000179990476D1CBAF10001AAF1010AF1DC95
:104CF00065E10000092801003031323334353637A0
:104D00003839616263646566000000003031323317
:104D100034353637383941424344454600000000B7
:104D200000F058F90544761C307800287FF4ECAD8B
:104D300019B02846BDE8F08F620700D4062709F1B4
:104D4000070222F0070CFCE80223E14603F00048CA
:104D50005FEA080C02D00FF2702C0DE05FEA045CF1
:104D600002D50FF2682C07E05FEAC47C02D00FF294
:104D7000602C01E0AFF2700C4FF0FF3823F00043DD
:104D8000CDF850C065280CD006DC452809D046284F
:104D90001DD047283DD13DE0662818D067287ED138
:104DA00038E00021112F01DB112000E0781CCDE953
:104DB000000106A90EA8FFF7DDFCDDE90F010E9A40
:104DC00003910021009207F1010A04914DE04FF098
:104DD00000400097CDE9011006A90EA8FFF7CAFC14
:104DE000DDE90F0203920E9B11990022DDF80CA061
:104DF0000093049211B9791C00EB010AB7EB0A0089
:104E000004D4C0F1FF3007F1010A0490AAEB0700B7
:104E1000019044E0012F00DA01270021112F01DD6C
:104E2000112000E03846CDE9000106A90EA8FFF7E1
:104E3000A1FCDDE90F010E9A03910021049100927B
:104E4000BA4621070CD40399514500DA8A46BAF1D3
:104E5000010F05DD009AAAF10101515C302908D04B
:104E6000B84202DA10F1040F06DA0121CDE901108F
:104E700015E0AAF10101E9E7002805DC04990144E5
:104E80000491AAEB000102E0411C514500DD8A4675
:104E90000499401A401C01904FF0004002902007F6
:104EA00004D40198504501DBCDF8048000208DF832
:104EB0004F0002980DF14F07B0F1004F25D02B2085
:104EC0000E9002984FF0020800280CDA404202903F
:104ED0002D200E9007E00A210298FBF706FB3031E7
:104EE000029007F8011DB8F10001A8F10108F2DCF9
:104EF00002980028EFD1791E0E980870307800F0E3
:104F0000200040F0450007F8020D12A8C01B00F178
:104F100007081498007800B1012000EB0A010198FD
:104F200001EBE07105984144401A401E0590E003F2
:104F300006D45B462146179A059800F05DF80544B3
:104F40001498007818B15A46179990476D1CE003E1
:104F500024D55B462146179A059800F04DF8054484
:104F60001CE00498002807DBDDE90301884203DD2B
:104F70000098405C179901E0179930205A469047F5
:104F8000049805F10105401C04900198401E019011
:104F900004D12E205A46179990476D1CBAF1000192
:104FA000AAF1010ADDDC05E017F8010B5A46179952
:104FB00090476D1CB8F10001A8F10108F4DC5B46D4
:104FC0002146179A0598ABE62D0000002B00000043
:104FD000200000002DE9F041044600251E4617463A
:104FE000880404D405E039462020B0476D1C641EB7
:104FF000F9D52846BDE8F0812DE9F04104460025A9
:105000001E469046C80301D5302700E020278804BB
:1050100004D505E041463846B0476D1C641EF9D5FD
:105020002846BDE8F0810A68531C0B601070704779
:1050300013B54FF6FF73012269460248FDF745FD9F
:1050400000981CBD0005002010B5002821D0114B90
:105050000022001F196803E0814203D80A4649680C
:105060000029F9D152B11368841A9C4204D1006816
:1050700018441060104602E0506000E0186039B13A
:1050800002680B1A934203D10B681A440260496804
:10509000416010BD980300208EB000200290039064
:1050A000FCF7D4FDFBF7C0FDFFF799F8FEF73CFBDA
:1050B000FEF714FBFEF7E4FBFEF7D4FAFEF73AFC2A
:1050C000FEF7BEFBFEF700FC012251495148FDF7F7
:1050D000A5FC51A0FFF70AFB57A0FFF707FB5CA058
:1050E000FFF704FB40F6B8342046FBF7B9FDFEF7A6
:1050F0000DFF5C48FBF7E6FD5B48FDF72FF9FEF777
:1051000085FCFBF79BFC424E0021761E3070084662
:10511000FEF7F6FE0022012154A0FEF76BFD1021E0
:105120000020FEF7EDFE0122114650A0FEF762FDC1
:10513000FEF7F6FFA2463078002864D103A902A842
:10514000FBF7E2FC4FF47A70FBF78AFD0398FBF75C
:105150009DF904460D460298FBF798F902460B4666
:1051600045A0CDE90045FFF7C1FA02980446FBF7D8
:1051700060F9C7B23846FBF74AF92146FBF763F8F6
:10518000FBF784F9DFF8148100224346FBF75EF851
:10519000FBF763F9044603988146FBF74AF9C5B269
:1051A0002846FBF734F94946FBF74DF8FBF76EF953
:1051B00000224346FBF74AF8FBF74FF98DF81070D1
:1051C0008DF811408DF812508DF8130004A8FEF7E9
:1051D000A5FC202802D132A0FFF788FA0298FBF73D
:1051E00055F902460B4631A10CA8FFF78FFA202192
:1051F0000020FEF785FE002301222E490CA8FEF7B1
:1052000079FFFEF78DFF5046FBF72AFD93E700007C
:105210000100002000050020B1BECFB5CDB3D3C939
:10522000D2AEF6D5BBF9B6BDBDCCCDBDB9A8D3EED7
:10523000BFAAB7A20D0A000032303230C4EA34D41B
:10524000C235C8D5BFAACABCC9E8BCC60D0A000091
:10525000B4AEBFDA31B3F5CABCBBAFCDEAB3C90D4A
:105260000A000000A003002068040020CED2B0AEE7
:10527000D2AEF6D500000000B5B1C7B0CEC2B6C8F8
:10528000A3BA2566200D0AB5B1C7B0CAAAB6C8A38D
:10529000BA2566200D0A0D0A0000000000005940E2
:1052A000B7A2CBCDCDEAB3C9200D0A00252E3166B9
:1052B0000000000020000020F0B50B30154D20F05C
:1052C00007010024144A0FE003688B420BD38B4282
:1052D00005D95E1A43184768C3E9006700E04368D0
:1052E000136002C004E0021D10680028ECD12046C3
:1052F000002802D1286808B10020F0BD064A0748FE
:105300001060074A121A22F00702C0E900240120A7
:105310002860D7E79C03002098030020CC090020D8
:10532000C80B002000000000000000000102030480
:10533000060708090000000001020304520131457C
:105340002052013145200000000000000000000054
:10535000000000000000000000F800000000000055
:1053600000333000000000100C06100C0600000096
:1053700000000000000040C07840C0784000043FBA
:1053800004043F040400007088FC0830000000188A
:1053900020FF211E0000F008F000E01800000021AE
:1053A0001C031E211E0000F00888700000001E2152
:1053B00023241927211010160E0000000000000001
:1053C000000000000000000000E0180402000000DF
:1053D00000071820400000020418E0000000004010
:1053E000201807000000404080F08040400002028A
:1053F000010F01020200000000F0000000000101A6
:10540000011F01010100000000000000000080B049
:10541000700000000000000000000000000000011B
:105420000101010101010000000000000000003046
:1054300030000000000000000000806018040060E0
:1054400018060100000000E010080810E000000F3E
:10545000102020100F00001010F8000000000020A5
:10546000203F2020000000700808088870000030ED
:105470002824222130000030088888483000001895
:10548000202020110E000000C02010F800000007AE
:105490000424243F240000F8088888080800001924
:1054A000212020110E0000E0108888180000000F55
:1054B000112020110E0000380808C838080000002C
:1054C000003F000000000070880808887000001C81
:1054D000222121221C0000E010080810E00000003A
:1054E000312222110F00000000C0C00000000000A7
:1054F00000303000000000000080000000000000CC
:1055000080600000000000008040201008000001C2
:105510000204081020004040404040404000040485
:10552000040404040400000810204080000000204F
:10553000100804020100007048080808F00000008C
:10554000003036010000C030C828E810E00007181D
:10555000272423140B000000C038E0000000203C8A
:1055600023020227382008F8888888700000203F2E
:10557000202020110E00C030080808083800071845
:1055800020202010080008F808080810E000203F3C
:10559000202020100F0008F88888E8081000203F1D
:1055A00020202320180008F88888E8081000203FF1
:1055B000200003000000C030080808380000071869
:1055C0002020221E020008F808000008F808203FEA
:1055D000210101213F20000808F8080800000020F0
:1055E000203F2020000000000808F8080800C080C4
:1055F00080807F00000008F888C028180800203F3D
:1056000020012638200008F8080000000000203F94
:1056100020202020300008F8F800F8F80800203F8B
:10562000003F003F200008F830C00008F808203F85
:10563000200007183F00E01008080810E0000F10D5
:10564000202020100F0008F808080808F000203F6C
:10565000210101010000E01008080810E0000F1807
:10566000242438504F0008F8888888887000203F2C
:105670002000030C3020007088080808380000382B
:10568000202121221C00180808F808081800000032
:10569000203F2000000008F808000008F808001F5C
:1056A000202020201F000878880000C8380800004B
:1056B00007380E010000F80800F80008F800033C65
:1056C0000700073C0300081868808068180820302D
:1056D0002C03032C30200838C800C838080000000C
:1056E000203F2000000010080808C83808002038B3
:1056F000262120201800000000FE02020200000007
:10570000007F40404000000C30C00000000000005E
:1057100000010638C00000020202FE000000004046
:1057200040407F000000000004020202040000006C
:105730000000000000000000000000000000808069
:105740008080808080800002020400000000000051
:105750000000000000000000808080800000001930
:10576000242222223F2008F8008080000000003F11
:10577000112020110E000000008080800000000E2B
:10578000112020201100000000808088F800000E09
:10579000112020103F200000808080800000001F2A
:1057A000222222221300008080F08888881800209E
:1057B000203F202000000000808080808000006B5F
:1057C00094949493600008F8008080800000203F4B
:1057D000210000203F200080989800000000002059
:1057E000203F20200000000000809898000000C0AA
:1057F0008080807F000008F8000080808000203FCB
:1058000024022D302000000808F8000000000020CD
:10581000203F202000008080808080808000203F0A
:1058200020003F20003F8080008080800000203FDB
:10583000210000203F200000808080800000001FA9
:10584000202020201F00808000808000000080FF3A
:10585000A12020110E000000008080808000000E3A
:10586000112020A0FF808080800080808000202088
:105870003F212000010000008080808080000033F4
:10588000242424241900008080E08080000000008F
:10589000001F202000008080000000808000001F8A
:1058A000202020103F208080800000808080000128
:1058B0000E300806010080800080008080800F305C
:1058C0000C030C300F0000808000808080000020DE
:1058D000312E0E3120008080800000808080808109
:1058E0008E7018060100008080808080800000217A
:1058F000302C2221300000000000807C02020000D9
:105900000000003F404000000000FF0000000000D9
:105910000000FF0000000002027C80000000004048
:10592000403F0000000000060101020204040000E4
:10593000000000000000000058590008000000208E
:10594000A0030000B6080008AC5A0008A00300201D
:10595000280C0000644700084132018210D324F46F
:10596000140810101346531408CED2181020242403
:1059700024FE23222020FF20222CA0201C100E48D1
:10598000847F02414020130C142241F813B0AE2052
:105990001080642C342424EC322222322E23A26084
:1059A000100F41219189874D552525554D818080C6
:1059B00013D2AE100A0202FE929292FE020216FE6C
:1059C0000222DA06100A08180F080804FF04041659
:1059D000FF0810080713F6D51710EC27E434EC1075
:1059E00009444444FE424342401740CF492F292FE7
:1059F0001009100C03FF0106081013A1FB580980C1
:105A000080C0C0E0A090800129C595010302042355
:105A1000A9961C8060105A19011D08081060231FE8
:105A2000030C10202040011B20204B111BA1FA4623
:105A300049013E90A0E0C0C0466136040203010166
:105A400013A876C80AFDF9F3E7CF9F3F7FFF015BFC
:105A5000FEFC187BA8772358097F3F9FCFE7F3F917
:105A6000FD086AFC231BCFC2F5290119F52B4282E0
:105A7000097142FF33010623CFDE15FE225A862B21
:105A8000FE92013AFE1E14040807100AFF4020038C
:105A90000C142241406BC9CF3629C3334040490919
:0C5AA0004A7F07391201FF01D30000000B
:0400000508000121CD
:00000001FF
